{"abi":[{"type":"function","name":"pancakeV3SwapCallback","inputs":[{"name":"amount0Delta","type":"int256","internalType":"int256"},{"name":"amount1Delta","type":"int256","internalType":"int256"},{"name":"data","type":"bytes","internalType":"bytes"}],"outputs":[],"stateMutability":"nonpayable"}],"bytecode":{"object":"0x608080604052346015576102b7908161001a8239f35b5f80fdfe60806040526004361015610011575f80fd5b5f3560e01c6323a69e7514610024575f80fd5b346101a25760603660031901126101a25760043560443567ffffffffffffffff81116101a257366023820112156101a257806004013567ffffffffffffffff81116101a25781013660248201116101a257606090829003126101a25761008c6024820161024b565b916001600160a01b036100a16044840161024b565b1615610212575f81131561020657606490915b013581116101c1575f91829182604051602081019263a9059cbb60e01b84523360248301526044820152604481526100ed60648261025f565b51926001600160a01b03165af13d156101ba573d67ffffffffffffffff81116101a65760405190610128601f8201601f19166020018361025f565b81523d5f602083013e5b8161016a575b501561014057005b60405162461bcd60e51b815260206004820152600260248201526114d560f21b6044820152606490fd5b805180159250821561017f575b50505f610138565b81925090602091810103126101a2576020015180151581036101a2575f80610177565b5f80fd5b634e487b7160e01b5f52604160045260245ffd5b6060610132565b60405162461bcd60e51b815260206004820152601960248201527f496e73756666696369656e7420696e70757420616d6f756e74000000000000006044820152606490fd5b506064602435916100b4565b60405162461bcd60e51b8152602060048201526011602482015270125b9d985b1a59081d1bdad95b881bdd5d607a1b6044820152606490fd5b35906001600160a01b03821682036101a257565b90601f8019910116810190811067ffffffffffffffff8211176101a65760405256fea2646970667358221220b8750dc107ee56f7759b722b4c8cf5ec63210f93ad83141b04bde49f6b28ef1564736f6c634300081c0033","linkReferences":{}},"methodIdentifiers":{"pancakeV3SwapCallback(int256,int256,bytes)":"23a69e75"},"id":5}