{"abi":[{"type":"function","name":"uniswapV3SwapCallback","inputs":[{"name":"amount0Delta","type":"int256","internalType":"int256"},{"name":"amount1Delta","type":"int256","internalType":"int256"},{"name":"data","type":"bytes","internalType":"bytes"}],"outputs":[],"stateMutability":"nonpayable"}],"bytecode":{"object":"0x608080604052346015576102cc908161001b8239f35b600080fdfe6080604052600436101561001257600080fd5b6000803560e01c63fa461e331461002857600080fd5b3461025957606036600319011261025957600435906044359067ffffffffffffffff8211610259573660238301121561025957816004013567ffffffffffffffff811161025c578201903660248301116102595750606090829003126101ad5761009460248201610260565b916001600160a01b036100a960448401610260565b161561022057600081131561021457606490915b013581116101cf57600091829182604051602081019263a9059cbb60e01b84523360248301526044820152604481526100f7606482610274565b51926001600160a01b03165af13d156101c8573d67ffffffffffffffff81116101b25760405190610132601f8201601f191660200183610274565b81523d6000602083013e5b81610175575b501561014b57005b60405162461bcd60e51b815260206004820152600260248201526114d560f21b6044820152606490fd5b805180159250821561018a575b505038610143565b81925090602091810103126101ad576020015180151581036101ad573880610182565b600080fd5b634e487b7160e01b600052604160045260246000fd5b606061013d565b60405162461bcd60e51b815260206004820152601960248201527f496e73756666696369656e7420696e70757420616d6f756e74000000000000006044820152606490fd5b506064602435916100bd565b60405162461bcd60e51b8152602060048201526011602482015270125b9d985b1a59081d1bdad95b881bdd5d607a1b6044820152606490fd5b80fd5b5080fd5b35906001600160a01b03821682036101ad57565b90601f8019910116810190811067ffffffffffffffff8211176101b25760405256fea2646970667358221220e38721ca450ed84d29a05557abf02c082a097a19980bb6ec138f00df6ab2918b64736f6c634300081c0033","linkReferences":{}},"methodIdentifiers":{"uniswapV3SwapCallback(int256,int256,bytes)":"fa461e33"},"id":8}