{"abi":[{"type":"constructor","inputs":[],"stateMutability":"payable"},{"type":"receive","stateMutability":"payable"},{"type":"function","name":"getFlashloan","inputs":[{"name":"flashToken","type":"address","internalType":"address"},{"name":"flashAmount","type":"uint256","internalType":"uint256"},{"name":"path","type":"address[]","internalType":"address[]"},{"name":"exchRoute","type":"uint8[]","internalType":"uint8[]"},{"name":"pools","type":"address[]","internalType":"address[]"}],"outputs":[],"stateMutability":"nonpayable"},{"type":"function","name":"pancakeV3SwapCallback","inputs":[{"name":"amount0Delta","type":"int256","internalType":"int256"},{"name":"amount1Delta","type":"int256","internalType":"int256"},{"name":"data","type":"bytes","internalType":"bytes"}],"outputs":[],"stateMutability":"nonpayable"},{"type":"function","name":"receiveFlashLoan","inputs":[{"name":"tokens","type":"address[]","internalType":"contract IERC20[]"},{"name":"amounts","type":"uint256[]","internalType":"uint256[]"},{"name":"feeAmounts","type":"uint256[]","internalType":"uint256[]"},{"name":"userData","type":"bytes","internalType":"bytes"}],"outputs":[],"stateMutability":"nonpayable"},{"type":"function","name":"uniswapV3SwapCallback","inputs":[{"name":"amount0Delta","type":"int256","internalType":"int256"},{"name":"amount1Delta","type":"int256","internalType":"int256"},{"name":"data","type":"bytes","internalType":"bytes"}],"outputs":[],"stateMutability":"nonpayable"},{"type":"function","name":"vault","inputs":[],"outputs":[{"name":"","type":"address","internalType":"contract IVault"}],"stateMutability":"view"},{"type":"function","name":"withdrawEth","inputs":[],"outputs":[],"stateMutability":"nonpayable"},{"type":"function","name":"withdrawTokens","inputs":[{"name":"token","type":"address","internalType":"address"}],"outputs":[],"stateMutability":"nonpayable"},{"type":"event","name":"ArbitrageAttempt","inputs":[{"name":"startAmount","type":"uint256","indexed":false,"internalType":"uint256"},{"name":"finalAmount","type":"uint256","indexed":false,"internalType":"uint256"},{"name":"profitable","type":"bool","indexed":false,"internalType":"bool"},{"name":"profit","type":"uint256","indexed":false,"internalType":"uint256"}],"anonymous":false},{"type":"event","name":"FlashLoan","inputs":[{"name":"token","type":"address","indexed":false,"internalType":"address"},{"name":"amount","type":"uint256","indexed":false,"internalType":"uint256"}],"anonymous":false},{"type":"event","name":"FlashLoanReceived","inputs":[{"name":"amount","type":"uint256","indexed":false,"internalType":"uint256"},{"name":"fee","type":"uint256","indexed":false,"internalType":"uint256"},{"name":"balanceAfter","type":"uint256","indexed":false,"internalType":"uint256"}],"anonymous":false},{"type":"event","name":"SwapExecuted","inputs":[{"name":"exchange","type":"uint8","indexed":false,"internalType":"uint8"},{"name":"amountIn","type":"uint256","indexed":false,"internalType":"uint256"},{"name":"amountOut","type":"uint256","indexed":false,"internalType":"uint256"}],"anonymous":false},{"type":"event","name":"SwapStarted","inputs":[{"name":"exchange","type":"uint8","indexed":false,"internalType":"uint8"},{"name":"amountIn","type":"uint256","indexed":false,"internalType":"uint256"},{"name":"tokenIn","type":"address","indexed":false,"internalType":"address"},{"name":"tokenOut","type":"address","indexed":false,"internalType":"address"},{"name":"pool","type":"address","indexed":false,"internalType":"address"}],"anonymous":false}],"bytecode":{"object":"0x60a08060405233608052612c129081610026823960805181818161087401526109590152f3fe608080604052600436101561001d575b50361561001b57600080fd5b005b600090813560e01c9081631c5318e414610b085750806323a69e75146100a457806349df728c14610939578063a0ef91df1461085d578063f04f2707146100c2578063fa461e33146100a45763fbfa77cf0361000f57346100a157806003193601126100a157602060405173ba12222222228d8ba445958a75a0704d566bf2c88152f35b80fd5b50346100a1576100bf6100b636610f63565b92919091611200565b80f35b50346100a15760803660031901126100a1576004356001600160401b03811161085957366023820112156108595780600401356100fe8161100c565b9161010c6040519384610feb565b8183526024602084019260051b8201019036821161060b57602401915b818310610839575050506024356001600160401b03811161083157610152903690600401611023565b6044356001600160401b03811161083557610171903690600401611023565b606435906001600160401b03821161060b573660238301121561060b5781600401358561019d82611080565b936101ab6040519586610feb565b82855260208501923660248284010111610831578060246020930185378501015273ba12222222228d8ba445958a75a0704d566bf2c833036107d757600185510361078357825183019260208401916020828603126106a35751906001600160401b0382116106a357019260e0908490031261077f576040519261022e84610fba565b61023a60208201611332565b84526040810151602085015261025260608201611332565b916040850192835260808201516001600160401b03811161075f5781602061027c92850101611346565b606086015260a08201516001600160401b03811161075f5760209083010181601f8201121561075f578051906102b18261100c565b916102bf6040519384610feb565b80835260208084019160051b8301019184831161077b57602001905b82821061076357505050608086015260c0820151906001600160401b03821161075f578261031360e092602080956024970101611346565b60a0880152015160c08601908152966001600160a01b03906103349061112c565b5116604051928380926370a0823160e01b82523060048301525afa90811561075457879161071d575b506040956103978288516103718a82610feb565b60148152730233630b9b42637b0b7103932b1b2b4bb32b21d160651b60208201526113dc565b7fa02d537af6c14a844a783bddc0e4108e3b0a48749b750e68b04de9e84b3c8c1c60606103c38861112c565b516103cd8761112c565b518a519182526020820152848a820152a1518103818111610709576103f18661112c565b51116106b95786602061040d6104068861112c565b518761152d565b94604461043860018060a01b038951169261043161042a8c61112c565b519161112c565b51906113b9565b8a51948593849263a9059cbb60e01b845273ba12222222228d8ba445958a75a0704d566bf2c8600485015260248401525af19081156106af578891610671575b5015610621577f1ad8fa4a5079cc458fd777eb676b15e7386af460eaf82326b614689bcec90dd460806104aa8761112c565b5185151593895191825260208201528389820152856060820152a161052f575b825186907f134bde118562a60dcf2d8c52965f586e25cf88a371592e44b78c4aa03bcbac849087906001600160a01b03166105296105078961112c565b5192516001600160a01b03909216825260208201929092529081906040820190565b0390a180f35b82519051855163a9059cbb60e01b81526001600160a01b0391821660048201526024810193909352602091839160449183918a91165af19081156106175785916105d9575b50156105815738806104ca565b825162461bcd60e51b815260206004820152602b60248201527f4172626974726167653a2050726f666974205472616e7366657220746f20636160448201526a1b1b195c8819985a5b195960aa1b6064820152608490fd5b90506020813d60201161060f575b816105f460209383610feb565b8101031261060b57610605906112f5565b38610574565b8480fd5b3d91506105e7565b84513d87823e3d90fd5b855162461bcd60e51b815260206004820152602360248201527f4172626974726167653a205472616e7366657220746f205661756c74206661696044820152621b195960ea1b6064820152608490fd5b90506020813d6020116106a7575b8161068c60209383610feb565b810103126106a35761069d906112f5565b38610478565b8780fd5b3d915061067f565b87513d8a823e3d90fd5b855162461bcd60e51b8152602060048201526024808201527f4172626974726167653a20436f6e747261637420646964206e6f7420676574206044820152633637b0b760e11b6064820152608490fd5b634e487b7160e01b88526011600452602488fd5b90506020813d60201161074c575b8161073860209383610feb565b8101031261074757513861035d565b600080fd5b3d915061072b565b6040513d89823e3d90fd5b8880fd5b60208091610770846113ab565b8152019101906102db565b8b80fd5b8580fd5b60405162461bcd60e51b815260206004820152602660248201527f4f6e6c792073696e676c6520746f6b656e20666c6173686c6f616e73207375706044820152651c1bdc9d195960d21b6064820152608490fd5b60405162461bcd60e51b815260206004820152602c60248201527f466c6173684c6f616e54656d706c6174653a2043616c6c6572206e6f7420426160448201526b1b185b98d95c8815985d5b1d60a21b6064820152608490fd5b8280fd5b8380fd5b82356001600160a01b038116810361077f57815260209283019201610129565b5080fd5b50346100a157806003193601126100a1576108a2337f00000000000000000000000000000000000000000000000000000000000000006001600160a01b0316146112a9565b4780156108ff578180808093335af16108b9611302565b50156108c25780f35b60405162461bcd60e51b8152602060048201526015602482015274115512081dda5d1a191c985dd85b0819985a5b1959605a1b6044820152606490fd5b60405162461bcd60e51b81526020600482015260126024820152714e6f2045544820746f20776974686472617760701b6044820152606490fd5b50346100a15760203660031901126100a157610953610f09565b610987337f00000000000000000000000000000000000000000000000000000000000000006001600160a01b0316146112a9565b6040516370a0823160e01b8152306004820152906001600160a01b0316602082602481845afa918215610afd578392610ac9575b508115610a8c5760405163a9059cbb60e01b815233600482015260248101929092526020908290604490829086905af1908115610a81578291610a47575b5015610a025780f35b60405162461bcd60e51b815260206004820152601760248201527f546f6b656e207769746864726177616c206661696c65640000000000000000006044820152606490fd5b90506020813d602011610a79575b81610a6260209383610feb565b8101031261085957610a73906112f5565b386109f9565b3d9150610a55565b6040513d84823e3d90fd5b60405162461bcd60e51b81526020600482015260156024820152744e6f20746f6b656e7320746f20776974686472617760581b6044820152606490fd5b9091506020813d602011610af5575b81610ae560209383610feb565b81010312610747575190386109bb565b3d9150610ad8565b6040513d85823e3d90fd5b82346100a15760a03660031901126100a157610b22610f09565b602435906044356001600160401b03811161083557610b45903690600401610f33565b946064356001600160401b03811161077f57610b65903690600401610f33565b926084356001600160401b0381116106a357610b85903690600401610f33565b6370a0823160e01b85523060048601526001600160a01b0390961698909594906020856024818d5afa948515610efe578995610eca575b50604096610bff868951610bd08b82610feb565b601a81527f42616c616e6365206265666f726520666c6173686c6f616e3a2000000000000060208201526113dc565b875196610c0b88610fba565b8b8852610c2760208901958b87528a8a0194338652369161109b565b9360608901948552610c388161100c565b96610c458b519889610feb565b818852602088019160051b810190368211610ec65799979699959495915b818310610e9a57505050610cd49291610c849160808801968752369161109b565b9260a0860193845260c08601968752885197889660208089015260018060a01b039051168a88015251606087015260018060a01b0390511660808601525160e060a08601526101208501906110ef565b915191603f198482030160c085015260208084519283815201930190895b818110610e7e57505050610d2d9391610d179151603f198583030160e08601526110ef565b905161010083015203601f198101835282610feb565b815192610d3a8385610feb565b600184526020840190601f1984019687368437610d568661112c565b52835190610d648583610feb565b600182526020820197368937610d798261112c565b5273ba12222222228d8ba445958a75a0704d566bf2c83b1561077f578351632e1c224f60e11b81523060048201526080602482015294516084860181905260a486019290875b818110610e5f575050506020906003198684030160448701525191828152019590855b818110610e495750505090838380610e07888496600319848303016064850152611173565b03818373ba12222222228d8ba445958a75a0704d566bf2c85af1908115610e3e5750610e305780f35b610e3991610feb565b818180f35b51913d9150823e3d90fd5b8251885260209788019790920191600101610de2565b82516001600160a01b0316855260209485019490920191600101610dbf565b825160ff16855287955060209485019490920191600101610cf2565b829a97989a9695963560ff81168103610ec25781529699979694959460209283019201610c63565b8e80fd5b8d80fd5b9094506020813d602011610ef6575b81610ee660209383610feb565b8101031261075f5751938a610bbc565b3d9150610ed9565b6040513d8b823e3d90fd5b600435906001600160a01b038216820361074757565b35906001600160a01b038216820361074757565b9181601f84011215610747578235916001600160401b038311610747576020808501948460051b01011161074757565b9060606003198301126107475760043591602435916044356001600160401b0381116107475782602382011215610747578060040135926001600160401b0384116107475760248483010111610747576024019190565b60e081019081106001600160401b03821117610fd557604052565b634e487b7160e01b600052604160045260246000fd5b90601f801991011681019081106001600160401b03821117610fd557604052565b6001600160401b038111610fd55760051b60200190565b9080601f8301121561074757813561103a8161100c565b926110486040519485610feb565b81845260208085019260051b82010192831161074757602001905b8282106110705750505090565b8135815260209182019101611063565b6001600160401b038111610fd557601f01601f191660200190565b9291906110a78161100c565b936110b56040519586610feb565b602085838152019160051b810192831161074757905b8282106110d757505050565b602080916110e484610f1f565b8152019101906110cb565b906020808351928381520192019060005b81811061110d5750505090565b82516001600160a01b0316845260209384019390920191600101611100565b8051156111395760200190565b634e487b7160e01b600052603260045260246000fd5b8051600110156111395760400190565b80518210156111395760209160051b010190565b919082519283825260005b84811061119f575050826000602080949584010152601f8019910116010190565b8060208092840101518282860101520161117e565b156111bb57565b60405162461bcd60e51b815260206004820152601960248201527f496e73756666696369656e7420696e70757420616d6f756e74000000000000006044820152606490fd5b92606083600092810103126100a1575061121982610f1f565b90604061122860208501610f1f565b930135926001600160a01b03161561127057611266936112569160008213156112685750925b8311156111b4565b33906001600160a01b0316611437565b565b90509261124e565b60405162461bcd60e51b8152602060048201526011602482015270125b9d985b1a59081d1bdad95b881bdd5d607a1b6044820152606490fd5b156112b057565b60405162461bcd60e51b815260206004820152601b60248201527f4f6e6c7920746865206f776e65722063616e20776974686472617700000000006044820152606490fd5b5190811515820361074757565b3d1561132d573d9061131382611080565b916113216040519384610feb565b82523d6000602084013e565b606090565b51906001600160a01b038216820361074757565b9080601f8301121561074757815161135d8161100c565b9261136b6040519485610feb565b81845260208085019260051b82010192831161074757602001905b8282106113935750505090565b602080916113a084611332565b815201910190611386565b519060ff8216820361074757565b919082018092116113c657565b634e487b7160e01b600052601160045260246000fd5b61140c611420600093928493604051938492632d839cb360e21b6020850152604060248501526064840190611173565b90604483015203601f198101835282610feb565b6020815191016a636f6e736f6c652e6c6f675afa50565b60405163a9059cbb60e01b602082019081526001600160a01b0390931660248201526044810193909352600092839290839061148081606481015b03601f198101835282610feb565b51925af161148c611302565b816114c4575b501561149a57565b60405162461bcd60e51b815260206004820152600260248201526114d560f21b6044820152606490fd5b80518015925082156114d9575b505038611492565b81925090602091810103126107475760206114f491016112f5565b38806114d1565b6040519061150a604083610feb565b6014825273010233630b9b4103637b0b71030b6b7bab73a1d160651b6020830152565b608081015151602091604091849160009160605b818410611605575050505061158584835161155c8582610feb565b600e81526d02334b730b61030b6b7bab73a1d160951b868201528361157f6114fb565b916129c8565b838111156115bf5790670283937b334ba1d160c51b936115bc9392039384926115b083519384610feb565b600883528201526113dc565b90565b7f4e6f2070726f6669742e2046696e616c20616d6f756e743a200000000000000061160094936115f184519485610feb565b6019845283015261157f6114fb565b600090565b90919293818401519060ff61161e87608088015161115f565b51169160018060a01b036116368860a089015161115f565b511692611677818a516116498c82610feb565b601a81527f506c6163696e672073776170206f6e2065786368616e67653a200000000000008d8201526113dc565b6001600160a01b03611689898461115f565b5116936001890192838a116113c65789958b918d917f505b3af977f3b25c6e3cf1c29838bbfc07f9371eb4b1751220cc467a4952c7379060a0906001600160a01b036116d58a8661115f565b51168651918983528b87840152878301528c820152866080820152a1602460009260009285519a6117068d8d610feb565b60028c52601f198d0136848e01376001600160a01b0390611727908361115f565b51166117328c61112c565b526000986001600160a01b0391611749919061115f565b51166117548b61114f565b526001600160a01b036117668b61112c565b51166001600160a01b036117798c61114f565b511611946001600160a01b0361178e8c61112c565b51169051928380926370a0823160e01b82523060048301525afa908115612355578f908f908993612997575b506118126024938d6117ce84519182610feb565b602e81527f746f6b656e496e2062616c616e6365206f6620736d61727420636f6e74726163858201526d3a103132b337b9329039bbb0b81d60911b848201526113dc565b6001600160a01b036118238c61114f565b51169051928380926370a0823160e01b82523060048301525afa908115612355578f908f90928c8a94859261295f575b506118e4926118b38695936118f29361186e84519182610feb565b602f81527f746f6b656e4f75742062616c616e6365206f6620736d61727420636f6e747261868201526e31ba103132b337b9329039bbb0b81d60891b848201526113dc565b8051906118c08483610feb565b8582525163104c13eb60e21b84820152602481018490529384916044830190611173565b03601f198101845283610feb565b815191016a636f6e736f6c652e6c6f675afa50846120965750506119178515156111b4565b8a51630240bc6b60e21b81528781600481865afa90811561200e578c6119768f9294611991947232bc3832b1ba32b21030b6b7bab73a27baba1d60691b968a908b92612075575b50821561206e5780925b156120665750905b8a612af6565b93849261198583519384610feb565b601383528201526113dc565b6126f78102908082046126f7149015171561205257906119dd8c8c6127106c30b6b7bab73a27baba26b4b71d60991b95049485926119d183519384610feb565b600d83528201526113dc565b6002865103612018578a51630240bc6b60e21b81528781600481855afa90811561200e5785908692611fdb575b50611a4e906001600160a01b03611a208a61112c565b51166001600160a01b03611a338b61114f565b511611928315611fd457815b8415611fcc5750905b88612af6565b928310611f885784808d8f82611472611aaa8c938e611a7360018060a01b039161112c565b51965163095ea7b360e01b9281019283526001600160a01b038c166024820152604481019690965290951694939182906064820190565b51925af1611ab6611302565b81611f4f575b5015611f265760448d8d6001600160a01b03611ad78b61112c565b5116905192838092636eb1769f60e11b82523060048301528760248301525afa908115611f1c579087918791611eeb575b5010611eae578c9190611b2e87836001600160a01b03611b278c61112c565b5116611437565b8c5193611b3b8a86610feb565b60028552601f198a01368587013787611b538661112c565b5280611b5e8661114f565b528115611ea75786915b15611e9f57905b8d5193611b7c8186610feb565b878552601f198101903690860137823b15611e9b5791611bcf9391878f948195519687958694859363022c0d9f60e01b855260048501526024840152306044840152608060648401526084830190611173565b03925af18015611e8157611bf18c936024938f938890611e8b575b505061114f565b5196611c46856001600160a01b03611c088461114f565b5116955b611c1881519182610feb565b601a81527f73776170206578656375746564206f6e2065786368616e67653a000000000000858201526113dc565b6001600160a01b0390611c589061112c565b51168c51928380926370a0823160e01b82523060048301525afa908115611e8157908c918591611e50575b5091611cdb6024938d6c3a1030b33a32b91039bbb0b81d60991b815191611caa8d84610feb565b602d83527f746f6b656e496e2062616c616e6365206f6620736d61727420636f6e74726163878401528201526113dc565b8b516370a0823160e01b815230600482015292839182906001600160a01b03165afa908115611e46578b8793928c928691611e0e575b50938693888481997fcee23d1f117220edb4cb718a7bbb402a5213b9e17c5e1505fc3a4e410deb4a6095611d9660019d9a611e049c9951611d528982610feb565b602e81527f746f6b656e4f75742062616c616e6365206f6620736d61727420636f6e747261848201526d31ba1030b33a32b91039bbb0b81d60911b868201526113dc565b8251948552840152820152a150895190611db08b83610feb565b601b82527f5377617020636f6d706c657465642e20416d6f756e7420696e3a2000000000008c8301528a5191611de68c84610feb565b600d83526c01020b6b7bab73a1037baba1d1609d1b8d8401526129c8565b9401929190611541565b93945050905081813d8311611e3f575b611e288183610feb565b8101031261083157518591908a908c906001611d11565b503d611e1e565b8a513d85823e3d90fd5b82819392503d8311611e7a575b611e678183610feb565b8101031261083557518b90611cdb611c83565b503d611e5d565b8b513d86823e3d90fd5b611e9491610feb565b3887611bea565b8680fd5b508590611b6f565b8091611b68565b8b5162461bcd60e51b8152600481018e90526016602482015275496e73756666696369656e7420616c6c6f77616e636560501b6044820152606490fd5b8f8193508092503d8311611f15575b611f048183610feb565b8101031261077f5786905138611b08565b503d611efa565b8d513d88823e3d90fd5b8b5162461bcd60e51b8152600481018e90526002602482015261534160f01b6044820152606490fd5b90508d8151908115918215611f69575b5050905038611abc565b838092935001031261077f578d611f8091016112f5565b808e38611f5f565b8b5162461bcd60e51b8152600481018e9052601a60248201527f496e73756666696369656e74206f757470757420616d6f756e740000000000006044820152606490fd5b905090611a48565b8091611a3f565b611a4e92506120009150893d8b11612007575b611ff88183610feb565b810190612ac9565b5091611a0a565b503d611fee565b8c513d87823e3d90fd5b8a5162461bcd60e51b8152600481018d90526013602482015272092dcecc2d8d2c840e0c2e8d040d8cadccee8d606b1b6044820152606490fd5b634e487b7160e01b84526011600452602484fd5b905090611970565b8192611968565b905061208e91508d803d1061200757611ff88183610feb565b50903861195e565b9091506001840361242857506001600160a01b0390506120b58661112c565b51168a5191630dfe168160e01b83528c83600481845afa92831561200e5785936123f1575b506001600160a01b0383168203612394578b5163d21220a760e01b81528d81600481855afa908115611f1c57869161235f575b505b8c51633850c7bd60e01b815260e081600481865afa9081156123555787916122ce575b506001600160a01b0385168403612289576001600160a01b031680156126f7808302839004141715612275579280928f928f936121b9906121ab8c6121e7996127106126f760018060a01b0392020416945b88516001600160a01b03988916948101948552971660208401526040830152859160600190565b03601f198101855284610feb565b8351630251596160e31b815295869384928b92849290918e6001600160a01b038d168b143060048701612a5a565b03925af192831561200e578c936024938f9361221b9389928a94612240575b506001600160a01b0316036122395750612a93565b96611c46856001600160a01b036122318461114f565b511695611c0c565b9050612a93565b909350612264919250873d891161226e575b61225c8183610feb565b810190612a44565b9190919238612206565b503d612252565b634e487b7160e01b87526011600452602487fd5b6001600160a01b03168015612729808302839004141715612275579280928f928f936121b9906121ab8c6121e79961271061272960018060a01b039202041694612184565b905060e0813d821161234d575b816122e860e09383610feb565b81010312611e9b576123468f918f9061231960c09261231161230984611332565b968401612a27565b508201612a35565b506123258d8201612a35565b5061233260808201612a35565b5061233f60a082016113ab565b50016112f5565b5038612132565b3d91506122db565b8e513d89823e3d90fd5b90508d81813d831161238d575b6123768183610feb565b8101031261077f5761238790611332565b3861210d565b503d61236c565b8b51630dfe168160e01b81528d81600481855afa908115611f1c5786916123bc575b5061210f565b90508d81813d83116123ea575b6123d38183610feb565b8101031261077f576123e490611332565b386123b6565b503d6123c9565b9092508c81813d8311612421575b6124098183610feb565b8101031261060b5761241a90611332565b91386120da565b503d6123ff565b8c8c6002860361267057506001600160a01b03925061244a915087905061112c565b51168a5191630dfe168160e01b83528c83600481845afa92831561200e578593612639575b506001600160a01b03831682036125dc578b5163d21220a760e01b81528d81600481855afa908115611f1c5786916125a7575b505b8c51633850c7bd60e01b815260e081600481865afa90811561235557879161253e57506001600160a01b0385168403612289576001600160a01b031680156126f7808302839004141715612275579280928f928f936121b9906121ab8c6121e7996127106126f760018060a01b03920204169488516001600160a01b03988916948101948552971660208401526040830152859160600190565b905060e0813d821161259f575b8161255860e09383610feb565b81010312611e9b576123468f918f9061257960c09261231161230984611332565b506125858d8201612a35565b5061259260808201612a35565b5061233f60a08201612aa4565b3d915061254b565b90508d81813d83116125d5575b6125be8183610feb565b8101031261077f576125cf90611332565b386124a2565b503d6125b4565b8b51630dfe168160e01b81528d81600481855afa908115611f1c578691612604575b506124a4565b90508d81813d8311612632575b61261b8183610feb565b8101031261077f5761262c90611332565b386125fe565b503d612611565b9092508c81813d8311612669575b6126518183610feb565b8101031261060b5761266290611332565b913861246f565b503d612647565b90929791936003861461268d575b5090611c468560249493611c0c565b93505095505060018060a01b036126a38661112c565b51168a5191630dfe168160e01b83528c83600481845afa92831561200e578593612928575b506001600160a01b03831682036128cb578b5163d21220a760e01b81528d81600481855afa908115611f1c578691612896575b505b8c51633850c7bd60e01b815260c081600481865afa908115612355578791612833575b506001600160a01b03851684036127ee576001600160a01b031680156126f7808302839004141715612275579280928f928f936121b9906121ab8c612798996127106126f760018060a01b03920204169488516001600160a01b03988916948101948552971660208401526040830152859160600190565b03925af192831561200e578c936024938f936127cb9389928a9461224057506001600160a01b0316036122395750612a93565b96611c46856001600160a01b036127e18461114f565b511695929394505061267e565b6001600160a01b03168015612729808302839004141715612275579280928f928f936121b9906121ab8c6127989961271061272960018060a01b039202041694612184565b905060c0813d821161288e575b8161284d60c09383610feb565b81010312611e9b576128878f918f9061286e60a09261231161230984611332565b5061287a8d8201612a35565b5061233f60808201612a35565b5038612720565b3d9150612840565b90508d81813d83116128c4575b6128ad8183610feb565b8101031261077f576128be90611332565b386126fb565b503d6128a3565b8b51630dfe168160e01b81528d81600481855afa908115611f1c5786916128f3575b506126fd565b90508d81813d8311612921575b61290a8183610feb565b8101031261077f5761291b90611332565b386128ed565b503d612900565b9092508c81813d8311612958575b6129408183610feb565b8101031261060b5761295190611332565b91386126c8565b503d612936565b945050505081813d8311612990575b6129788183610feb565b81010312611e9b575186908f908f908c6118e4611853565b503d61296e565b92505081813d83116129c1575b6129ae8183610feb565b81010312611e9b57518e8e6118126117ba565b503d6129a4565b61142090600094612a136129fc94879660405196879563c67ea9d160e01b60208801526080602488015260a4870190611173565b916044860152602319858303016064860152611173565b90608483015203601f198101835282610feb565b51908160020b820361074757565b519061ffff8216820361074757565b9190826040910312610747576020825192015190565b6001600160a01b039182168152911515602083015260408201929092529116606082015260a0608082018190526115bc92910190611173565b600160ff1b81146113c65760000390565b519063ffffffff8216820361074757565b51906001600160701b038216820361074757565b9081606091031261074757612add81612ab5565b916115bc6040612aef60208501612ab5565b9301612aa4565b91906001600160701b03831591612b0d83156111b4565b1691821590811580612bca575b15612b8c576103e58502928584046103e51417156113c6576001600160701b036103e59116809502029382850414821517156113c6576103e883029283046103e81417156113c657612b6b916113b9565b908115612b76570490565b634e487b7160e01b600052601260045260246000fd5b60405162461bcd60e51b8152602060048201526016602482015275496e73756666696369656e74206c697175696469747960501b6044820152606490fd5b506001600160701b0381161515612b1a56fea2646970667358221220c44ab7296b2ccdf33f47f3c864668b24e2a04099047b72b4ca8f651af23a4d5364736f6c634300081c0033","linkReferences":{}},"methodIdentifiers":{"getFlashloan(address,uint256,address[],uint8[],address[])":"1c5318e4","pancakeV3SwapCallback(int256,int256,bytes)":"23a69e75","receiveFlashLoan(address[],uint256[],uint256[],bytes)":"f04f2707","uniswapV3SwapCallback(int256,int256,bytes)":"fa461e33","vault()":"fbfa77cf","withdrawEth()":"a0ef91df","withdrawTokens(address)":"49df728c"},"id":0}