{"abi":[{"type":"constructor","inputs":[],"stateMutability":"payable"},{"type":"receive","stateMutability":"payable"},{"type":"function","name":"DOMAIN_SEPARATOR","inputs":[],"outputs":[{"name":"","type":"bytes32","internalType":"bytes32"}],"stateMutability":"view"},{"type":"function","name":"MIN_PRIORITY_FEE","inputs":[],"outputs":[{"name":"","type":"uint256","internalType":"uint256"}],"stateMutability":"view"},{"type":"function","name":"REVEAL_DELAY","inputs":[],"outputs":[{"name":"","type":"uint256","internalType":"uint256"}],"stateMutability":"view"},{"type":"function","name":"TIME_LOCK","inputs":[],"outputs":[{"name":"","type":"uint256","internalType":"uint256"}],"stateMutability":"view"},{"type":"function","name":"commit","inputs":[{"name":"commitment","type":"bytes32","internalType":"bytes32"}],"outputs":[],"stateMutability":"nonpayable"},{"type":"function","name":"commitments","inputs":[{"name":"","type":"bytes32","internalType":"bytes32"}],"outputs":[{"name":"","type":"bool","internalType":"bool"}],"stateMutability":"view"},{"type":"function","name":"getFlashloanWithSubmarine","inputs":[{"name":"flashToken","type":"address","internalType":"address"},{"name":"flashAmount","type":"uint256","internalType":"uint256"},{"name":"path","type":"address[]","internalType":"address[]"},{"name":"exchRoute","type":"uint8[]","internalType":"uint8[]"},{"name":"pools","type":"address[]","internalType":"address[]"},{"name":"salt","type":"bytes32","internalType":"bytes32"}],"outputs":[],"stateMutability":"nonpayable"},{"type":"function","name":"pancakeV3SwapCallback","inputs":[{"name":"amount0Delta","type":"int256","internalType":"int256"},{"name":"amount1Delta","type":"int256","internalType":"int256"},{"name":"data","type":"bytes","internalType":"bytes"}],"outputs":[],"stateMutability":"nonpayable"},{"type":"function","name":"pendingTrades","inputs":[{"name":"","type":"bytes32","internalType":"bytes32"}],"outputs":[{"name":"","type":"uint256","internalType":"uint256"}],"stateMutability":"view"},{"type":"function","name":"queueTrade","inputs":[{"name":"tradeHash","type":"bytes32","internalType":"bytes32"}],"outputs":[],"stateMutability":"nonpayable"},{"type":"function","name":"receiveFlashLoan","inputs":[{"name":"tokens","type":"address[]","internalType":"contract IERC20[]"},{"name":"amounts","type":"uint256[]","internalType":"uint256[]"},{"name":"feeAmounts","type":"uint256[]","internalType":"uint256[]"},{"name":"userData","type":"bytes","internalType":"bytes"}],"outputs":[],"stateMutability":"nonpayable"},{"type":"function","name":"uniswapV3SwapCallback","inputs":[{"name":"amount0Delta","type":"int256","internalType":"int256"},{"name":"amount1Delta","type":"int256","internalType":"int256"},{"name":"data","type":"bytes","internalType":"bytes"}],"outputs":[],"stateMutability":"nonpayable"},{"type":"function","name":"vault","inputs":[],"outputs":[{"name":"","type":"address","internalType":"contract IVault"}],"stateMutability":"view"},{"type":"function","name":"withdrawEth","inputs":[],"outputs":[],"stateMutability":"nonpayable"},{"type":"function","name":"withdrawTokens","inputs":[{"name":"token","type":"address","internalType":"address"}],"outputs":[],"stateMutability":"nonpayable"},{"type":"event","name":"ArbitrageAttempt","inputs":[{"name":"startAmount","type":"uint256","indexed":false,"internalType":"uint256"},{"name":"finalAmount","type":"uint256","indexed":false,"internalType":"uint256"},{"name":"profitable","type":"bool","indexed":false,"internalType":"bool"},{"name":"profit","type":"uint256","indexed":false,"internalType":"uint256"}],"anonymous":false},{"type":"event","name":"CommitmentSubmitted","inputs":[{"name":"commitment","type":"bytes32","indexed":true,"internalType":"bytes32"}],"anonymous":false},{"type":"event","name":"FlashLoan","inputs":[{"name":"token","type":"address","indexed":false,"internalType":"address"},{"name":"amount","type":"uint256","indexed":false,"internalType":"uint256"}],"anonymous":false},{"type":"event","name":"FlashLoanReceived","inputs":[{"name":"amount","type":"uint256","indexed":false,"internalType":"uint256"},{"name":"fee","type":"uint256","indexed":false,"internalType":"uint256"},{"name":"balanceAfter","type":"uint256","indexed":false,"internalType":"uint256"}],"anonymous":false},{"type":"event","name":"SwapExecuted","inputs":[{"name":"exchange","type":"uint8","indexed":false,"internalType":"uint8"},{"name":"amountIn","type":"uint256","indexed":false,"internalType":"uint256"},{"name":"amountOut","type":"uint256","indexed":false,"internalType":"uint256"}],"anonymous":false},{"type":"event","name":"SwapStarted","inputs":[{"name":"exchange","type":"uint8","indexed":false,"internalType":"uint8"},{"name":"amountIn","type":"uint256","indexed":false,"internalType":"uint256"},{"name":"tokenIn","type":"address","indexed":false,"internalType":"address"},{"name":"tokenOut","type":"address","indexed":false,"internalType":"address"},{"name":"pool","type":"address","indexed":false,"internalType":"address"}],"anonymous":false},{"type":"event","name":"TradeQueued","inputs":[{"name":"tradeHash","type":"bytes32","indexed":true,"internalType":"bytes32"}],"anonymous":false}],"bytecode":{"object":"0x33608090815260e09081526009610160526841726269747261676560b81b6101805260c061010081815260016101a052603160f81b6101c0524661012052306101405281526101e091908260405251902060a052612977908161007982396080518181816109160152610fbc015260a051816111830152f3fe6080604052600436101561001b575b361561001957600080fd5b005b6000803560e01c806309bdbdc9146111a657806323a69e75146100fd5780633644e5151461116b57806349df728c14610f9c57806376a4f8c714610f725780637f40f9a614610f53578063839df94514610f2557806398d850f4146109db578063a0ef91df146108ff578063a7bc4e30146108e3578063e0a09c68146108c7578063f04f27071461016d578063f14fcbc81461011b578063fa461e33146100fd5763fbfa77cf146100cc575061000e565b346100fa57806003193601126100fa57602060405173ba12222222228d8ba445958a75a0704d566bf2c88152f35b80fd5b50346100fa5761011861010f3661120e565b9291909161140f565b80f35b50346100fa5760203660031901126100fa576004358082528160205260408220600160ff198254161790557f64d420a5a06e99f83a5ca11277497c2686ebaf645f537735036323e200c343118280a280f35b50346100fa5760803660031901126100fa576004356001600160401b0381116108c357366023820112156108c35780600401356101a981611311565b916101b760405193846112f0565b8183526024602084019260051b8201019036821161089f57602401915b8183106108a3575050506024356001600160401b03811161089b576101fd903690600401611328565b6044356001600160401b0381116106765761021c903690600401611328565b6064356001600160401b03811161089f573660238201121561089f578060040135908561024883611385565b9161025660405193846112f0565b8383526020830193366024828401011161089b578060246020930186378301015273ba12222222228d8ba445958a75a0704d566bf2c833036108415760018551036107ed57805181019060208201926020828403126107e95751906001600160401b0382116107e957019060e090829003126107e557604051946102d9866112bf565b6102e560208301611609565b8652604082015160208701526102fd60608301611609565b926040870193845260808301516001600160401b0381116107c5578160206103279286010161161d565b606088015260a08301516001600160401b0381116107c55760209084010181601f820112156107c55780519061035c82611311565b9161036a60405193846112f0565b80835260208084019160051b830101918483116107e157602001905b8282106107c957505050608088015260c0830151906001600160401b0382116107c557836103be60e09260208095602498010161161d565b60a08a0152015160c08801908152916001600160a01b03906103df90611690565b5116604051938480926370a0823160e01b82523060048301525afa91821561071c57879261078c575b507fa02d537af6c14a844a783bddc0e4108e3b0a48749b750e68b04de9e84b3c8c1c606061043587611690565b5161043f87611690565b516040519182526020820152846040820152a15181038181116107785761046585611690565b51116107275785602061048161047a87611690565b518861186d565b9460446104ac60018060a01b038a5116926104a561049e8b611690565b5191611690565b51906113a0565b604051948593849263a9059cbb60e01b845273ba12222222228d8ba445958a75a0704d566bf2c8600485015260248401525af190811561071c5787916106de575b501561068d577f1ad8fa4a5079cc458fd777eb676b15e7386af460eaf82326b614689bcec90dd4608061051f86611690565b51851515936040519182526020820152836040820152856060820152a1610598575b50506105787f134bde118562a60dcf2d8c52965f586e25cf88a371592e44b78c4aa03bcbac849260018060a01b0390511691611690565b51604080516001600160a01b03939093168352602083019190915290a180f35b8351905160405163a9059cbb60e01b81526001600160a01b0391821660048201526024810193909352602091839160449183918991165af1908115610682578491610644575b50156105eb573880610541565b60405162461bcd60e51b815260206004820152602b60248201527f4172626974726167653a2050726f666974205472616e7366657220746f20636160448201526a1b1b195c8819985a5b195960aa1b6064820152608490fd5b90506020813d60201161067a575b8161065f602093836112f0565b810103126106765761067090611504565b386105de565b8380fd5b3d9150610652565b6040513d86823e3d90fd5b60405162461bcd60e51b815260206004820152602360248201527f4172626974726167653a205472616e7366657220746f205661756c74206661696044820152621b195960ea1b6064820152608490fd5b90506020813d602011610714575b816106f9602093836112f0565b810103126107105761070a90611504565b386104ed565b8680fd5b3d91506106ec565b6040513d89823e3d90fd5b60405162461bcd60e51b8152602060048201526024808201527f4172626974726167653a20436f6e747261637420646964206e6f7420676574206044820152633637b0b760e11b6064820152608490fd5b634e487b7160e01b87526011600452602487fd5b9091506020813d6020116107bd575b816107a8602093836112f0565b810103126107b857519038610408565b600080fd5b3d915061079b565b8880fd5b602080916107d684611682565b815201910190610386565b8b80fd5b8580fd5b8780fd5b60405162461bcd60e51b815260206004820152602660248201527f4f6e6c792073696e676c6520746f6b656e20666c6173686c6f616e73207375706044820152651c1bdc9d195960d21b6064820152608490fd5b60405162461bcd60e51b815260206004820152602c60248201527f466c6173684c6f616e54656d706c6174653a2043616c6c6572206e6f7420426160448201526b1b185b98d95c8815985d5b1d60a21b6064820152608490fd5b8280fd5b8480fd5b82356001600160a01b03811681036107e5578152602092830192016101d4565b5080fd5b50346100fa57806003193601126100fa576020604051603c8152f35b50346100fa57806003193601126100fa57602060405160018152f35b50346100fa57806003193601126100fa57610944337f00000000000000000000000000000000000000000000000000000000000000006001600160a01b0316146114b8565b4780156109a1578180808093335af161095b6115d9565b50156109645780f35b60405162461bcd60e51b8152602060048201526015602482015274115512081dda5d1a191c985dd85b0819985a5b1959605a1b6044820152606490fd5b60405162461bcd60e51b81526020600482015260126024820152714e6f2045544820746f20776974686472617760701b6044820152606490fd5b50346100fa5760c03660031901126100fa576109f5611265565b906024356044356001600160401b03811161089b57610a1890369060040161128f565b6064356001600160401b03811161089f57610a3790369060040161128f565b90926084356001600160401b03811161071057610a5890369060040161128f565b94909363b2d05e004801804811610f11573a1015610a7581611511565b333214610a8181611550565b6040519a60208c019060018060a01b03169b8c82528a604082015260e060608201526020610ab46101008301878a61158b565b828103601f190160808401528981520181878e5b8b8110610eed575050610aeb610b0792601f198382030160a08401528d8d61158b565b60a43560c08301523360e083015203601f1981018352826112f0565b519020808b528a60205260ff60408c20541615610eb35760014310610e8257610b4a92610b45918c528b60205260408c2060ff198154169055611511565b611550565b6040516370a0823160e01b8152306004820152946020866024818d5afa958615610e77578996610e43575b5060405196610b83886112bf565b8a8852610ba060208901958a875260408a0194338652369161179b565b9360608901948552610bb187611311565b96610bbf60405198896112f0565b808852602088019060051b820191368311610e3f5799979699959495905b828210610e1957505050610c509291610bfe9160808801968752369161179b565b9260a0860193845260c0860196875260405197889660208089015260018060a01b03905116604088015251606087015260018060a01b0390511660808601525160e060a08601526101208501906117ef565b915191603f198482030160c085015260208084519283815201930190885b818110610dfd57505050610ca99391610c939151603f198583030160e08601526117ef565b905161010083015203601f1981018352826112f0565b604090815192610cb983856112f0565b600184526020840190601f1984019687368437610cd586611690565b52835190610ce385836112f0565b600182526020820197368937610cf882611690565b5273ba12222222228d8ba445958a75a0704d566bf2c83b156107e5578351632e1c224f60e11b81523060048201526080602482015294516084860181905260a486019290875b818110610dde575050506020906003198684030160448701525191828152019590855b818110610dc85750505090838380610d8688849660031984830301606485015261182c565b03818373ba12222222228d8ba445958a75a0704d566bf2c85af1908115610dbd5750610daf5780f35b610db8916112f0565b818180f35b51913d9150823e3d90fd5b8251885260209788019790920191600101610d61565b82516001600160a01b0316855260209485019490920191600101610d3e565b825160ff16855287955060209485019490920191600101610c6e565b60208091610e2d849d9a9b9d9998996115cb565b81520191019099979699959495610bdd565b8c80fd5b9095506020813d602011610e6f575b81610e5f602093836112f0565b810103126107c557519438610b75565b3d9150610e52565b6040513d8b823e3d90fd5b60405162461bcd60e51b8152602060048201526009602482015268546f6f206561726c7960b81b6044820152606490fd5b60405162461bcd60e51b8152602060048201526012602482015271125b9d985b1a590818dbdb5b5a5d1b595b9d60721b6044820152606490fd5b91509160208060019260ff610f01876115cb565b1681520193019101908391610ac8565b634e487b7160e01b89526011600452602489fd5b50346100fa5760203660031901126100fa5760ff604060209260043581528084522054166040519015158152f35b50346100fa57806003193601126100fa57602060405163b2d05e008152f35b50346100fa5760203660031901126100fa5760406020916004358152600183522054604051908152f35b50346100fa5760203660031901126100fa57610fb6611265565b610fea337f00000000000000000000000000000000000000000000000000000000000000006001600160a01b0316146114b8565b6040516370a0823160e01b8152306004820152906001600160a01b0316602082602481845afa91821561116057839261112c575b5081156110ef5760405163a9059cbb60e01b815233600482015260248101929092526020908290604490829086905af19081156110e45782916110aa575b50156110655780f35b60405162461bcd60e51b815260206004820152601760248201527f546f6b656e207769746864726177616c206661696c65640000000000000000006044820152606490fd5b90506020813d6020116110dc575b816110c5602093836112f0565b810103126108c3576110d690611504565b3861105c565b3d91506110b8565b6040513d84823e3d90fd5b60405162461bcd60e51b81526020600482015260156024820152744e6f20746f6b656e7320746f20776974686472617760581b6044820152606490fd5b9091506020813d602011611158575b81611148602093836112f0565b8101031261089b5751903861101e565b3d915061113b565b6040513d85823e3d90fd5b50346100fa57806003193601126100fa5760206040517f00000000000000000000000000000000000000000000000000000000000000008152f35b50346100fa5760203660031901126100fa57600435603c42018042116111fa57818352600160205260408320557f530862f8194e7c2007599c3d2fd56ffe97128c6c0ed5c4ae4ffc82ed665c6b328280a280f35b634e487b7160e01b83526011600452602483fd5b9060606003198301126107b85760043591602435916044356001600160401b0381116107b857826023820112156107b8578060040135926001600160401b0384116107b857602484830101116107b8576024019190565b600435906001600160a01b03821682036107b857565b35906001600160a01b03821682036107b857565b9181601f840112156107b8578235916001600160401b0383116107b8576020808501948460051b0101116107b857565b60e081019081106001600160401b038211176112da57604052565b634e487b7160e01b600052604160045260246000fd5b90601f801991011681019081106001600160401b038211176112da57604052565b6001600160401b0381116112da5760051b60200190565b9080601f830112156107b857813561133f81611311565b9261134d60405194856112f0565b81845260208085019260051b8201019283116107b857602001905b8282106113755750505090565b8135815260209182019101611368565b6001600160401b0381116112da57601f01601f191660200190565b919082018092116113ad57565b634e487b7160e01b600052601160045260246000fd5b156113ca57565b60405162461bcd60e51b815260206004820152601960248201527f496e73756666696369656e7420696e70757420616d6f756e74000000000000006044820152606490fd5b92606083600092810103126100fa57506114288261127b565b9060406114376020850161127b565b930135926001600160a01b03161561147f57611475936114659160008213156114775750925b8311156113c3565b33906001600160a01b03166116d7565b565b90509261145d565b60405162461bcd60e51b8152602060048201526011602482015270125b9d985b1a59081d1bdad95b881bdd5d607a1b6044820152606490fd5b156114bf57565b60405162461bcd60e51b815260206004820152601b60248201527f4f6e6c7920746865206f776e65722063616e20776974686472617700000000006044820152606490fd5b519081151582036107b857565b1561151857565b60405162461bcd60e51b815260206004820152601060248201526f4c6f77207072696f726974792066656560801b6044820152606490fd5b1561155757565b60405162461bcd60e51b815260206004820152600c60248201526b4e6f20666c617368626f747360a01b6044820152606490fd5b9160209082815201919060005b8181106115a55750505090565b909192602080600192838060a01b036115bd8861127b565b168152019401929101611598565b359060ff821682036107b857565b3d15611604573d906115ea82611385565b916115f860405193846112f0565b82523d6000602084013e565b606090565b51906001600160a01b03821682036107b857565b9080601f830112156107b857815161163481611311565b9261164260405194856112f0565b81845260208085019260051b8201019283116107b857602001905b82821061166a5750505090565b6020809161167784611609565b81520191019061165d565b519060ff821682036107b857565b80511561169d5760200190565b634e487b7160e01b600052603260045260246000fd5b80516001101561169d5760400190565b805182101561169d5760209160051b010190565b60405163a9059cbb60e01b602082019081526001600160a01b0390931660248201526044810193909352600092839290839061172081606481015b03601f1981018352826112f0565b51925af161172c6115d9565b81611764575b501561173a57565b60405162461bcd60e51b815260206004820152600260248201526114d560f21b6044820152606490fd5b8051801592508215611779575b505038611732565b81925090602091810103126107b85760206117949101611504565b3880611771565b9291906117a781611311565b936117b560405195866112f0565b602085838152019160051b81019283116107b857905b8282106117d757505050565b602080916117e48461127b565b8152019101906117cb565b906020808351928381520192019060005b81811061180d5750505090565b82516001600160a01b0316845260209384019390920191600101611800565b919082519283825260005b848110611858575050826000602080949584010152601f8019910116010190565b80602080928401015182828601015201611837565b608081018051518392600092604092916060905b8386106118a35750505050505081811160001461189c570390565b5050600090565b909192939495828201519060ff6118bb8987516116c3565b51169160018060a01b036118d38a60a08701516116c3565b51166001600160a01b036118e78b846116c3565b51169160018b0190818c116113ad578a937f505b3af977f3b25c6e3cf1c29838bbfc07f9371eb4b1751220cc467a4952c7379060a0906001600160a01b0361192f86866116c3565b5116604051918a835289602084015260408301528b820152856080820152a16119a96000928d60009061196283866116c3565b50604051976119718d8a6112f0565b600289523660208a01376001600160a01b039061198e90866116c3565b511661199988611690565b52506001600160a01b03926116c3565b51166119b4846116b3565b52866001600160a01b036119c785611690565b51166001600160a01b036119da866116b3565b5116119186611e8d5750506119f08415156113c3565b604051630240bc6b60e21b8152908782600481865afa8015611ca657611a32926000908192611e6c575b508215611e655780925b15611e5d5750905b8561283b565b916126f78302928084046126f714901517156113ad576002815103611e2257604051630240bc6b60e21b8152908782600481865afa918215611ca6576000908193611de8575b5061271090611ac0906001600160a01b03611a9285611690565b51166001600160a01b03611aa5866116b3565b511611948515611de157815b8615611dd95750905b8861283b565b94048410611d94576000806001600160a01b03611adc84611690565b5160405163095ea7b360e01b602082019081526001600160a01b0389166024830152604482018b90529290911691908390611b1a8160648101611712565b51925af1611b266115d9565b81611d5d575b5015611d3357604460206001600160a01b03611b4784611690565b511660405192838092636eb1769f60e11b82523060048301528860248301525afa8015611ca6578691600091611cff575b5010611cc157611b9f90859084906001600160a01b0390611b9890611690565b51166116d7565b60405192611bad88856112f0565b600284528a36602086013784611bc285611690565b5280611bcd856116b3565b528115611cba576000915b60009015611cb25750915b604051906020611bf381846112f0565b60008352601f198101903690840137803b156107b857611c4693600080946040519687958694859363022c0d9f60e01b85526004850152602484015230604484015260806064840152608483019061182c565b03925af1938415611ca657611c74600080516020612922833981519152938893600197611c95575b506116b3565b51935b6040519182526020820152836040820152a196019493929190611881565b6000611ca0916112f0565b38611c6e565b6040513d6000823e3d90fd5b905091611be3565b8091611bd8565b60405162461bcd60e51b8152602060048201526016602482015275496e73756666696369656e7420616c6c6f77616e636560501b6044820152606490fd5b91506020823d8211611d2b575b81611d19602093836112f0565b810103126100fa575085905138611b78565b3d9150611d0c565b60405162461bcd60e51b8152602060048201526002602482015261534160f01b6044820152606490fd5b8051801592508215611d72575b505038611b2c565b81925090602091810103126107b8576020611d8d9101611504565b3880611d6a565b60405162461bcd60e51b815260206004820152601860248201527f536c69707070616765204c696d697420657863656564656400000000000000006044820152606490fd5b905090611aba565b8091611ab1565b611ac093506127109150611e11908a3d8c11611e1b575b611e0981836112f0565b81019061280e565b5093909150611a78565b503d611dff565b60405162461bcd60e51b8152602060048201526013602482015272092dcecc2d8d2c840e0c2e8d040d8cadccee8d606b1b6044820152606490fd5b905090611a2c565b8192611a24565b9050611e859150893d8b11611e1b57611e0981836112f0565b509038611a1a565b9091506001869493961460001461220f57506001600160a01b0391611eb29150611690565b5116604051630dfe168160e01b8152602081600481885afa908115611ca6576000916121d6575b506001600160a01b031681149360008515612163575060405163d21220a760e01b8152602081600481855afa908115611ca65760009161212a575b505b604051633850c7bd60e01b815260e081600481865afa908115611ca6576000916120a4575b506000871561204b57506001600160a01b03166126f78181029391808504909114901517156113ad57611fd39360409361271090046001600160a01b031690611fb3905b85516001600160a01b039182166020820152941660408501526060840188905283608081015b03601f1981018552846112f0565b60008451809681958294630251596160e31b84528b8d306004870161279c565b03925af1918215611ca65761200c6000805160206129228339815191529388936001976000918293612019575b501561201257506127d8565b93611c77565b90506127d8565b90925061203d915060403d8111612044575b61203581836112f0565b810190612786565b9138612000565b503d61202b565b9193916127296001600160a01b039092168281029281159184041417156120905750611fd3936040939092909161271090046001600160a01b031690611fb390611f7f565b634e487b7160e01b81526011600452602490fd5b9060e0823d8211612122575b816120bd60e093836112f0565b810103126100fa575061211b60c06120d483611609565b926120e160208201612769565b506120ee60408201612777565b506120fa8c8201612777565b5061210760808201612777565b5061211460a08201611682565b5001611504565b5038611f3b565b3d91506120b0565b906020823d821161215b575b81612143602093836112f0565b810103126100fa575061215590611609565b38611f14565b3d9150612136565b604051630dfe168160e01b8152602081600481865afa9182156121ca57809261218e575b5050611f16565b9091506020823d82116121c2575b816121a9602093836112f0565b810103126100fa57506121bb90611609565b3880612187565b3d915061219c565b604051903d90823e3d90fd5b906020823d8211612207575b816121ef602093836112f0565b810103126100fa575061220190611609565b38611ed9565b3d91506121e2565b6002840361246857506001600160a01b039161222b9150611690565b5116604051630dfe168160e01b8152602081600481885afa908115611ca65760009161242f575b506001600160a01b0316811493600085156123c8575060405163d21220a760e01b8152602081600481855afa908115611ca65760009161238f575b505b604051633850c7bd60e01b815260e081600481865afa908115611ca65760009161231757506000871561204b57506001600160a01b03166126f78181029391808504909114901517156113ad57604080516001600160a01b0395861660208201529285168382015260608301879052611fd3949093612710900416611fb38360808101611fa5565b9060e0823d8211612387575b8161233060e093836112f0565b810103126100fa575061211b60c061234783611609565b9261235460208201612769565b5061236160408201612777565b5061236d8c8201612777565b5061237a60808201612777565b5061211460a082016127e9565b3d9150612323565b906020823d82116123c0575b816123a8602093836112f0565b810103126100fa57506123ba90611609565b3861228d565b3d915061239b565b604051630dfe168160e01b8152602081600481865afa9182156121ca5780926123f3575b505061228f565b9091506020823d8211612427575b8161240e602093836112f0565b810103126100fa575061242090611609565b38806123ec565b3d9150612401565b906020823d8211612460575b81612448602093836112f0565b810103126100fa575061245a90611609565b38612252565b3d915061243b565b939160038496929614612491575b50509260008051602061292283398151915291600194611c77565b9094509092506001600160a01b03906124a990611690565b5116604051630dfe168160e01b8152602081600481885afa908115611ca657600091612730575b506001600160a01b0316811493600085156126c9575060405163d21220a760e01b8152602081600481855afa908115611ca657600091612690575b505b604051633850c7bd60e01b815260c081600481865afa908115611ca65760009161261e575b50600087156125d957506001600160a01b03166126f78181029391808504909114901517156113ad57604080516001600160a01b0395861660208201529285168382015260608301879052612596949093612710900416611fb38360808101611fa5565b03925af1918215611ca6576125ce600080516020612922833981519152938893600197600091829361201957501561201257506127d8565b939194819350612476565b9193916127296001600160a01b039092168281029281159184041417156120905750612596936040939092909161271090046001600160a01b031690611fb390611f7f565b9060c0823d8211612688575b8161263760c093836112f0565b810103126100fa575061268160a061264e83611609565b9261265b60208201612769565b5061266860408201612777565b506126748c8201612777565b5061211460808201612777565b5038612532565b3d915061262a565b906020823d82116126c1575b816126a9602093836112f0565b810103126100fa57506126bb90611609565b3861250b565b3d915061269c565b604051630dfe168160e01b8152602081600481865afa9182156121ca5780926126f4575b505061250d565b9091506020823d8211612728575b8161270f602093836112f0565b810103126100fa575061272190611609565b38806126ed565b3d9150612702565b906020823d8211612761575b81612749602093836112f0565b810103126100fa575061275b90611609565b386124d0565b3d915061273c565b51908160020b82036107b857565b519061ffff821682036107b857565b91908260409103126107b8576020825192015190565b6001600160a01b039182168152911515602083015260408201929092529116606082015260a0608082018190526127d59291019061182c565b90565b600160ff1b81146113ad5760000390565b519063ffffffff821682036107b857565b51906001600160701b03821682036107b857565b908160609103126107b857612822816127fa565b916127d56040612834602085016127fa565b93016127e9565b91906001600160701b0383159161285283156113c3565b169182159081158061290f575b156128d1576103e58502928584046103e51417156113ad576001600160701b036103e59116809502029382850414821517156113ad576103e883029283046103e81417156113ad576128b0916113a0565b9081156128bb570490565b634e487b7160e01b600052601260045260246000fd5b60405162461bcd60e51b8152602060048201526016602482015275496e73756666696369656e74206c697175696469747960501b6044820152606490fd5b506001600160701b038116151561285f56fecee23d1f117220edb4cb718a7bbb402a5213b9e17c5e1505fc3a4e410deb4a60a264697066735822122072ef8a0fc4637a2a98c5fc9dd0b57bf6102c0bf45299210911376800dabf07c064736f6c634300081c0033","linkReferences":{}},"methodIdentifiers":{"DOMAIN_SEPARATOR()":"3644e515","MIN_PRIORITY_FEE()":"7f40f9a6","REVEAL_DELAY()":"a7bc4e30","TIME_LOCK()":"e0a09c68","commit(bytes32)":"f14fcbc8","commitments(bytes32)":"839df945","getFlashloanWithSubmarine(address,uint256,address[],uint8[],address[],bytes32)":"98d850f4","pancakeV3SwapCallback(int256,int256,bytes)":"23a69e75","pendingTrades(bytes32)":"76a4f8c7","queueTrade(bytes32)":"09bdbdc9","receiveFlashLoan(address[],uint256[],uint256[],bytes)":"f04f2707","uniswapV3SwapCallback(int256,int256,bytes)":"fa461e33","vault()":"fbfa77cf","withdrawEth()":"a0ef91df","withdrawTokens(address)":"49df728c"},"id":0}