{"abi":[{"type":"constructor","inputs":[],"stateMutability":"payable"},{"type":"receive","stateMutability":"payable"},{"type":"function","name":"getFlashloan","inputs":[{"name":"flashToken","type":"address","internalType":"address"},{"name":"flashAmount","type":"uint256","internalType":"uint256"},{"name":"path","type":"address[]","internalType":"address[]"},{"name":"exchRoute","type":"uint8[]","internalType":"uint8[]"},{"name":"pools","type":"address[]","internalType":"address[]"}],"outputs":[],"stateMutability":"nonpayable"},{"type":"function","name":"pancakeV3SwapCallback","inputs":[{"name":"amount0Delta","type":"int256","internalType":"int256"},{"name":"amount1Delta","type":"int256","internalType":"int256"},{"name":"data","type":"bytes","internalType":"bytes"}],"outputs":[],"stateMutability":"nonpayable"},{"type":"function","name":"receiveFlashLoan","inputs":[{"name":"tokens","type":"address[]","internalType":"contract IERC20[]"},{"name":"amounts","type":"uint256[]","internalType":"uint256[]"},{"name":"feeAmounts","type":"uint256[]","internalType":"uint256[]"},{"name":"userData","type":"bytes","internalType":"bytes"}],"outputs":[],"stateMutability":"nonpayable"},{"type":"function","name":"uniswapV3SwapCallback","inputs":[{"name":"amount0Delta","type":"int256","internalType":"int256"},{"name":"amount1Delta","type":"int256","internalType":"int256"},{"name":"data","type":"bytes","internalType":"bytes"}],"outputs":[],"stateMutability":"nonpayable"},{"type":"function","name":"vault","inputs":[],"outputs":[{"name":"","type":"address","internalType":"contract IVault"}],"stateMutability":"view"},{"type":"function","name":"withdrawEth","inputs":[],"outputs":[],"stateMutability":"nonpayable"},{"type":"function","name":"withdrawTokens","inputs":[{"name":"token","type":"address","internalType":"address"}],"outputs":[],"stateMutability":"nonpayable"},{"type":"event","name":"ArbitrageAttempt","inputs":[{"name":"startAmount","type":"uint256","indexed":false,"internalType":"uint256"},{"name":"finalAmount","type":"uint256","indexed":false,"internalType":"uint256"},{"name":"profitable","type":"bool","indexed":false,"internalType":"bool"},{"name":"profit","type":"uint256","indexed":false,"internalType":"uint256"}],"anonymous":false},{"type":"event","name":"FlashLoan","inputs":[{"name":"token","type":"address","indexed":false,"internalType":"address"},{"name":"amount","type":"uint256","indexed":false,"internalType":"uint256"}],"anonymous":false},{"type":"event","name":"FlashLoanReceived","inputs":[{"name":"amount","type":"uint256","indexed":false,"internalType":"uint256"},{"name":"fee","type":"uint256","indexed":false,"internalType":"uint256"},{"name":"balanceAfter","type":"uint256","indexed":false,"internalType":"uint256"}],"anonymous":false},{"type":"event","name":"SwapExecuted","inputs":[{"name":"exchange","type":"uint8","indexed":false,"internalType":"uint8"},{"name":"amountIn","type":"uint256","indexed":false,"internalType":"uint256"},{"name":"amountOut","type":"uint256","indexed":false,"internalType":"uint256"}],"anonymous":false},{"type":"event","name":"SwapStarted","inputs":[{"name":"exchange","type":"uint8","indexed":false,"internalType":"uint8"},{"name":"amountIn","type":"uint256","indexed":false,"internalType":"uint256"},{"name":"tokenIn","type":"address","indexed":false,"internalType":"address"},{"name":"tokenOut","type":"address","indexed":false,"internalType":"address"},{"name":"pool","type":"address","indexed":false,"internalType":"address"}],"anonymous":false}],"bytecode":{"object":"0x60a08060405233608052612d96908161002682396080518181816108ac01526109910152f3fe608080604052600436101561001d575b50361561001b57600080fd5b005b600090813560e01c9081631c5318e414610b405750806323a69e75146100a457806349df728c14610971578063a0ef91df14610895578063f04f2707146100c2578063fa461e33146100a45763fbfa77cf0361000f57346100a157806003193601126100a157602060405173ba12222222228d8ba445958a75a0704d566bf2c88152f35b80fd5b50346100a1576100bf6100b636610f9b565b92919091611238565b80f35b50346100a15760803660031901126100a1576004356001600160401b03811161089157366023820112156108915780600401356100fe81611044565b9161010c6040519384611023565b8183526024602084019260051b8201019036821161064357602401915b818310610871575050506024356001600160401b0381116108695761015290369060040161105b565b6044356001600160401b03811161086d5761017190369060040161105b565b606435906001600160401b03821161064357366023830112156106435781600401358561019d826110b8565b936101ab6040519586611023565b82855260208501923660248284010111610869578060246020930185378501015273ba12222222228d8ba445958a75a0704d566bf2c8330361080f5760018551036107bb57825183019260208401916020828603126106db5751906001600160401b0382116106db57019260e090849003126107b7576040519261022e84610ff2565b61023a6020820161136a565b8452604081015160208501526102526060820161136a565b916040850192835260808201516001600160401b0381116107975781602061027c9285010161137e565b606086015260a08201516001600160401b0381116107975760209083010181601f82011215610797578051906102b182611044565b916102bf6040519384611023565b80835260208084019160051b830101918483116107b357602001905b82821061079b57505050608086015260c0820151906001600160401b038211610797578261031360e09260208095602497010161137e565b60a0880152015160c08601908152966001600160a01b039061033490611164565b5116604051928380926370a0823160e01b82523060048301525afa90811561078c578791610755575b5061036785611164565b51956103cf8260409889519061037d8b83611023565b60148252730233630b9b42637b0b7103932b1b2b4bb32b21d160651b60208301528a51916103ab8c84611023565b601283527102130b630b731b29030b33a32b91023261d160751b6020840152611533565b7fa02d537af6c14a844a783bddc0e4108e3b0a48749b750e68b04de9e84b3c8c1c60606103fb88611164565b5161040587611164565b518a519182526020820152848a820152a15181038181116107415761042986611164565b51116106f15786602061044561043e88611164565b51876115c4565b94604461047060018060a01b03895116926104696104628c611164565b5191611164565b51906113f1565b8a51948593849263a9059cbb60e01b845273ba12222222228d8ba445958a75a0704d566bf2c8600485015260248401525af19081156106e75788916106a9575b5015610659577f1ad8fa4a5079cc458fd777eb676b15e7386af460eaf82326b614689bcec90dd460806104e287611164565b5185151593895191825260208201528389820152856060820152a1610567575b825186907f134bde118562a60dcf2d8c52965f586e25cf88a371592e44b78c4aa03bcbac849087906001600160a01b031661056161053f89611164565b5192516001600160a01b03909216825260208201929092529081906040820190565b0390a180f35b82519051855163a9059cbb60e01b81526001600160a01b0391821660048201526024810193909352602091839160449183918a91165af190811561064f578591610611575b50156105b9573880610502565b825162461bcd60e51b815260206004820152602b60248201527f4172626974726167653a2050726f666974205472616e7366657220746f20636160448201526a1b1b195c8819985a5b195960aa1b6064820152608490fd5b90506020813d602011610647575b8161062c60209383611023565b810103126106435761063d9061132d565b386105ac565b8480fd5b3d915061061f565b84513d87823e3d90fd5b855162461bcd60e51b815260206004820152602360248201527f4172626974726167653a205472616e7366657220746f205661756c74206661696044820152621b195960ea1b6064820152608490fd5b90506020813d6020116106df575b816106c460209383611023565b810103126106db576106d59061132d565b386104b0565b8780fd5b3d91506106b7565b87513d8a823e3d90fd5b855162461bcd60e51b8152602060048201526024808201527f4172626974726167653a20436f6e747261637420646964206e6f7420676574206044820152633637b0b760e11b6064820152608490fd5b634e487b7160e01b88526011600452602488fd5b90506020813d602011610784575b8161077060209383611023565b8101031261077f57513861035d565b600080fd5b3d9150610763565b6040513d89823e3d90fd5b8880fd5b602080916107a8846113e3565b8152019101906102db565b8b80fd5b8580fd5b60405162461bcd60e51b815260206004820152602660248201527f4f6e6c792073696e676c6520746f6b656e20666c6173686c6f616e73207375706044820152651c1bdc9d195960d21b6064820152608490fd5b60405162461bcd60e51b815260206004820152602c60248201527f466c6173684c6f616e54656d706c6174653a2043616c6c6572206e6f7420426160448201526b1b185b98d95c8815985d5b1d60a21b6064820152608490fd5b8280fd5b8380fd5b82356001600160a01b03811681036107b757815260209283019201610129565b5080fd5b50346100a157806003193601126100a1576108da337f00000000000000000000000000000000000000000000000000000000000000006001600160a01b0316146112e1565b478015610937578180808093335af16108f161133a565b50156108fa5780f35b60405162461bcd60e51b8152602060048201526015602482015274115512081dda5d1a191c985dd85b0819985a5b1959605a1b6044820152606490fd5b60405162461bcd60e51b81526020600482015260126024820152714e6f2045544820746f20776974686472617760701b6044820152606490fd5b50346100a15760203660031901126100a15761098b610f41565b6109bf337f00000000000000000000000000000000000000000000000000000000000000006001600160a01b0316146112e1565b6040516370a0823160e01b8152306004820152906001600160a01b0316602082602481845afa918215610b35578392610b01575b508115610ac45760405163a9059cbb60e01b815233600482015260248101929092526020908290604490829086905af1908115610ab9578291610a7f575b5015610a3a5780f35b60405162461bcd60e51b815260206004820152601760248201527f546f6b656e207769746864726177616c206661696c65640000000000000000006044820152606490fd5b90506020813d602011610ab1575b81610a9a60209383611023565b8101031261089157610aab9061132d565b38610a31565b3d9150610a8d565b6040513d84823e3d90fd5b60405162461bcd60e51b81526020600482015260156024820152744e6f20746f6b656e7320746f20776974686472617760581b6044820152606490fd5b9091506020813d602011610b2d575b81610b1d60209383611023565b8101031261077f575190386109f3565b3d9150610b10565b6040513d85823e3d90fd5b82346100a15760a03660031901126100a157610b5a610f41565b602435906044356001600160401b03811161086d57610b7d903690600401610f6b565b946064356001600160401b0381116107b757610b9d903690600401610f6b565b926084356001600160401b0381116106db57610bbd903690600401610f6b565b6370a0823160e01b85523060048601526001600160a01b0390961698909594906020856024818d5afa948515610f36578995610f02575b50604096610c37868951610c088b82611023565b601a81527f42616c616e6365206265666f726520666c6173686c6f616e3a200000000000006020820152611414565b875196610c4388610ff2565b8b8852610c5f60208901958b87528a8a019433865236916110d3565b9360608901948552610c7081611044565b96610c7d8b519889611023565b818852602088019160051b810190368211610efe5799979699959495915b818310610ed257505050610d0c9291610cbc916080880196875236916110d3565b9260a0860193845260c08601968752885197889660208089015260018060a01b039051168a88015251606087015260018060a01b0390511660808601525160e060a0860152610120850190611127565b915191603f198482030160c085015260208084519283815201930190895b818110610eb657505050610d659391610d4f9151603f198583030160e0860152611127565b905161010083015203601f198101835282611023565b815192610d728385611023565b600184526020840190601f1984019687368437610d8e86611164565b52835190610d9c8583611023565b600182526020820197368937610db182611164565b5273ba12222222228d8ba445958a75a0704d566bf2c83b156107b7578351632e1c224f60e11b81523060048201526080602482015294516084860181905260a486019290875b818110610e97575050506020906003198684030160448701525191828152019590855b818110610e815750505090838380610e3f8884966003198483030160648501526111ab565b03818373ba12222222228d8ba445958a75a0704d566bf2c85af1908115610e765750610e685780f35b610e7191611023565b818180f35b51913d9150823e3d90fd5b8251885260209788019790920191600101610e1a565b82516001600160a01b0316855260209485019490920191600101610df7565b825160ff16855287955060209485019490920191600101610d2a565b829a97989a9695963560ff81168103610efa5781529699979694959460209283019201610c9b565b8e80fd5b8d80fd5b9094506020813d602011610f2e575b81610f1e60209383611023565b810103126107975751938a610bf4565b3d9150610f11565b6040513d8b823e3d90fd5b600435906001600160a01b038216820361077f57565b35906001600160a01b038216820361077f57565b9181601f8401121561077f578235916001600160401b03831161077f576020808501948460051b01011161077f57565b90606060031983011261077f5760043591602435916044356001600160401b03811161077f578260238201121561077f578060040135926001600160401b03841161077f576024848301011161077f576024019190565b60e081019081106001600160401b0382111761100d57604052565b634e487b7160e01b600052604160045260246000fd5b90601f801991011681019081106001600160401b0382111761100d57604052565b6001600160401b03811161100d5760051b60200190565b9080601f8301121561077f57813561107281611044565b926110806040519485611023565b81845260208085019260051b82010192831161077f57602001905b8282106110a85750505090565b813581526020918201910161109b565b6001600160401b03811161100d57601f01601f191660200190565b9291906110df81611044565b936110ed6040519586611023565b602085838152019160051b810192831161077f57905b82821061110f57505050565b6020809161111c84610f57565b815201910190611103565b906020808351928381520192019060005b8181106111455750505090565b82516001600160a01b0316845260209384019390920191600101611138565b8051156111715760200190565b634e487b7160e01b600052603260045260246000fd5b8051600110156111715760400190565b80518210156111715760209160051b010190565b919082519283825260005b8481106111d7575050826000602080949584010152601f8019910116010190565b806020809284010151828286010152016111b6565b156111f357565b60405162461bcd60e51b815260206004820152601960248201527f496e73756666696369656e7420696e70757420616d6f756e74000000000000006044820152606490fd5b92606083600092810103126100a1575061125182610f57565b90604061126060208501610f57565b930135926001600160a01b0316156112a85761129e9361128e9160008213156112a05750925b8311156111ec565b33906001600160a01b031661146f565b565b905092611286565b60405162461bcd60e51b8152602060048201526011602482015270125b9d985b1a59081d1bdad95b881bdd5d607a1b6044820152606490fd5b156112e857565b60405162461bcd60e51b815260206004820152601b60248201527f4f6e6c7920746865206f776e65722063616e20776974686472617700000000006044820152606490fd5b5190811515820361077f57565b3d15611365573d9061134b826110b8565b916113596040519384611023565b82523d6000602084013e565b606090565b51906001600160a01b038216820361077f57565b9080601f8301121561077f57815161139581611044565b926113a36040519485611023565b81845260208085019260051b82010192831161077f57602001905b8282106113cb5750505090565b602080916113d88461136a565b8152019101906113be565b519060ff8216820361077f57565b919082018092116113fe57565b634e487b7160e01b600052601160045260246000fd5b611444611458600093928493604051938492632d839cb360e21b60208501526040602485015260648401906111ab565b90604483015203601f198101835282611023565b6020815191016a636f6e736f6c652e6c6f675afa50565b60405163a9059cbb60e01b602082019081526001600160a01b039093166024820152604481019390935260009283929083906114b881606481015b03601f198101835282611023565b51925af16114c461133a565b816114fc575b50156114d257565b60405162461bcd60e51b815260206004820152600260248201526114d560f21b6044820152606490fd5b8051801592508215611511575b5050386114ca565b819250906020918101031261077f57602061152c910161132d565b3880611509565b6114589060009461157e61156794879660405196879563c67ea9d160e01b60208801526080602488015260a48701906111ab565b9160448601526023198583030160648601526111ab565b90608483015203601f198101835282611023565b604051906115a1604083611023565b6014825273010233630b9b4103637b0b71030b6b7bab73a1d160651b6020830152565b816080820151519060006040926060946020955b82841061169c575050505061161c8483516115f38582611023565b600e81526d02334b730b61030b6b7bab73a1d160951b8682015283611616611592565b91611533565b838111156116565790670283937b334ba1d160c51b9361165393920393849261164783519384611023565b60088352820152611414565b90565b7f4e6f2070726f6669742e2046696e616c20616d6f756e743a2000000000000000611697949361168884519485611023565b60198452830152611616611592565b600090565b909192936116f860ff6116b3876080870151611197565b511687516116c18582611023565b602181527f457865637574696e6720617262697472616765206f6e2065786368616e67653a8a820152600160fd1b89820152611414565b818301519060ff61170d876080870151611197565b511660018060a01b036117248860a0880151611197565b511692611765828a516117378c82611023565b601a81527f506c6163696e672073776170206f6e2065786368616e67653a200000000000008d820152611414565b6001600160a01b036117778983611197565b51169360018901808a116113fe578b956001600160a01b036117998386611197565b51168c519186835287898401528d8301528882015282608082015260a07f505b3af977f3b25c6e3cf1c29838bbfc07f9371eb4b1751220cc467a4952c73791a16000928391906001600160a01b036117f18383611197565b5116948d51986118018b8b611023565b60028a52601f198b019036908b01376001600160a01b036118228e84611197565b511661182d8a611164565b52506001600160a01b039161184191611197565b511661184c87611187565b526001600160a01b0361185e87611164565b51168c6001600160a01b0361187289611187565b51168d8051936118828286611023565b601085526f03a37b5b2b7102830ba341034b9901d160851b848601528151916118ab8184611023565b60018352848301600160fd1b90525194859463aabc9a3160e01b90860152602485016080905260a485016118de916111ab565b9060448501526023198482030160648501526118f9916111ab565b90608483015203601f19810182526119119082611023565b8c815191015a91600092916a636f6e736f6c652e6c6f678493fa506001600160a01b0361193d87611164565b51166001600160a01b0361195088611187565b511611906001600160a01b0361196588611164565b51168d8d5180926370a0823160e01b8252306004830152815a91602492fa9081156120fa5790898f8f93600093612b76575b50837f746f6b656e496e2062616c616e6365206f6620736d61727420636f6e747261636d3a103132b337b9329039bbb0b81d60911b926119dc6119eb97519586611023565b602e8552840152820152611414565b60248d8d6001600160a01b03611a008b611187565b51169051928380926370a0823160e01b82523060048301525afa9081156120fa578d918f918b90600092612b40575b5091611ad0600094611a91611ac2948796611a4c84519182611023565b602f81527f746f6b656e4f75742062616c616e6365206f6620736d61727420636f6e747261868201526e31ba103132b337b9329039bbb0b81d60891b84820152611414565b805190611a9e8483611023565b8582525163104c13eb60e21b848201526024810184905293849160448301906111ab565b03601f198101845283611023565b815191016a636f6e736f6c652e6c6f675afa50846122625750611af48515156111ec565b8a51630240bc6b60e21b81528781600481865afa9081156121ed578c611b558f9294611b70947232bc3832b1ba32b21030b6b7bab73a27baba1d60691b97966000908192612241575b50821561223a5780925b156122325750905b8a612c7a565b948592611b6483519384611023565b60138352820152611414565b6126f78202918083046126f714901517156113fe57611bbb8c8c6127106c30b6b7bab73a27baba26b4b71d60991b9504948592611baf83519384611023565b600d8352820152611414565b60028651036121f8578a51630240bc6b60e21b81528781600481855afa9081156121ed5760009081926121ba575b50611c2d906001600160a01b03611bff8a611164565b51166001600160a01b03611c128b611187565b5116119283156121b357815b84156121ab5750905b88612c7a565b928310612167576000808d8f826114aa611c8a8c938e611c5360018060a01b0391611164565b51965163095ea7b360e01b9281019283526001600160a01b038c166024820152604481019690965290951694939182906064820190565b51925af1611c9661133a565b8161212e575b50156121055760448d8d6001600160a01b03611cb78b611164565b5116905192838092636eb1769f60e11b82523060048301528760248301525afa9081156120fa579087918f6000926120c9575b50501061208c57611d0e86836001600160a01b03611d078b611164565b511661146f565b8c8c5193611d1c8a86611023565b60028552601f198a01368387013787611d3486611164565b5280611d3f86611187565b528215612085576000925b6000901561207d5750925b8d5191611d628184611023565b60008352601f198101903690840137803b1561077f57611db59360008f948195519687958694859363022c0d9f60e01b8552600485015260248401523060448401526080606484015260848301906111ab565b03925af1801561207257602496959493928d92611dd792612061575b50611187565b51945b611e19848d611deb81519182611023565b601a81527f73776170206578656375746564206f6e2065786368616e67653a00000000000085820152611414565b6001600160a01b0390611e2b90611164565b51168b51968780926370a0823160e01b82523060048301525afa94851561205657908b9160009661201c575b50611eae6024968c6c3a1030b33a32b91039bbb0b81d60991b815191611e7d8c84611023565b602d83527f746f6b656e496e2062616c616e6365206f6620736d61727420636f6e7472616387840152820152611414565b8a516370a0823160e01b815230600482015295869182905afa93841561201157908a8a8793600097611fd5575b50928492611fcb957fcee23d1f117220edb4cb718a7bbb402a5213b9e17c5e1505fc3a4e410deb4a609386611f5d60019b8b9951611f198882611023565b602e81527f746f6b656e4f75742062616c616e6365206f6620736d61727420636f6e747261858201526d31ba1030b33a32b91039bbb0b81d60911b84820152611414565b51928352820152848d820152a1895190611f778b83611023565b601b82527f5377617020636f6d706c657465642e20416d6f756e7420696e3a2000000000008c8301528a5191611fad8c84611023565b600d83526c01020b6b7bab73a1037baba1d1609d1b8d840152611533565b94019291906115d8565b935050828196929495963d831161200a575b611ff18183611023565b810103126100a157505192919084908a8a611fcb611edb565b503d611fe7565b89513d6000823e3d90fd5b9182819792949596973d831161204f575b6120378183611023565b810103126100a1575051939291908a90611eae611e57565b503d61202d565b8a513d6000823e3d90fd5b600061206c91611023565b38611dd1565b8b513d6000823e3d90fd5b905092611d55565b8092611d4a565b8b5162461bcd60e51b8152600481018e90526016602482015275496e73756666696369656e7420616c6c6f77616e636560501b6044820152606490fd5b90809350813d83116120f3575b6120e08183611023565b810103126100a15750869051388f611cea565b503d6120d6565b8d513d6000823e3d90fd5b8b5162461bcd60e51b8152600481018e90526002602482015261534160f01b6044820152606490fd5b90508d8151908115918215612148575b5050905038611c9c565b838092935001031261077f578d61215f910161132d565b808e3861213e565b8b5162461bcd60e51b8152600481018e9052601860248201527f536c69707070616765204c696d697420657863656564656400000000000000006044820152606490fd5b905090611c27565b8091611c1e565b611c2d92506121df9150893d8b116121e6575b6121d78183611023565b810190612c4d565b5091611be9565b503d6121cd565b8c513d6000823e3d90fd5b8a5162461bcd60e51b8152600481018d90526013602482015272092dcecc2d8d2c840e0c2e8d040d8cadccee8d606b1b6044820152606490fd5b905090611b4f565b8192611b47565b905061225a91508d803d106121e6576121d78183611023565b509038611b3d565b90506001840361260457506001600160a01b0361227e86611164565b51168a51630dfe168160e01b81528c81600481865afa9081156121ed576000916125cf575b5060006001600160a01b038216830361256057508b5163d21220a760e01b81528d81600481875afa80156120fa578e60009161252c575b5090505b8c51633850c7bd60e01b815260e081600481885afa9081156125215760009161249a575b5060006001600160a01b038416850361243857506001600160a01b031680156126f78083028390041417156113fe576123ba948f928f9361238b9061237d8c89966127106126f760018060a01b0392020416945b88516001600160a01b03988916948101948552971660208401526040830152859160600190565b03601f198101855284611023565b8351630251596160e31b81529687938492600092849290918e6001600160a01b038b168c143060048701612bde565b03925af19283156121ed57928c8e936123f49360249a999897966000938495612401575b50506001600160a01b0316036123fa5750612c17565b94611dda565b9050612c17565b8091929550612426939450903d10612431575b61241e8183611023565b810190612bc8565b919091928f806123de565b503d612414565b939492936001600160a01b039091169081156127298084028490041417156124865750938093928f928f9361238b9061237d8c6123ba9a61271061272960018060a01b039202041694612356565b634e487b7160e01b81526011600452602490fd5b9060e0823d8211612519575b816124b360e09383611023565b810103126100a157506125128f918f906124e560c0926124dd6124d58461136a565b968401612bab565b508201612bb9565b506124f18d8201612bb9565b506124fe60808201612bb9565b5061250b60a082016113e3565b500161132d565b5038612302565b3d91506124a6565b8e513d6000823e3d90fd5b82813d8311612559575b6125408183611023565b810103126100a157506125529061136a565b808e6122da565b503d612536565b8c51630dfe168160e01b81528e81600481885afa9182156125c4578f819361258b575b5050506122de565b9091809350813d83116125bd575b6125a38183611023565b810103126100a157506125b59061136a565b38808f612583565b503d612599565b8e51903d90823e3d90fd5b908d82813d83116125fd575b6125e58183611023565b810103126100a157506125f79061136a565b386122a3565b503d6125db565b8b6002850361285457506001600160a01b03905061262186611164565b51168a51630dfe168160e01b81528c81600481865afa9081156121ed5760009161281f575b5060006001600160a01b03821683036127bb57508b5163d21220a760e01b81528d81600481875afa80156120fa578e600091612787575b5090505b8c51633850c7bd60e01b815260e081600481885afa9081156125215760009161271e575060006001600160a01b038416850361243857506001600160a01b031680156126f78083028390041417156113fe576123ba948f928f9361238b9061237d8c89966127106126f760018060a01b03920204169488516001600160a01b03988916948101948552971660208401526040830152859160600190565b9060e0823d821161277f575b8161273760e09383611023565b810103126100a157506125128f918f9061275960c0926124dd6124d58461136a565b506127658d8201612bb9565b5061277260808201612bb9565b5061250b60a08201612c28565b3d915061272a565b82813d83116127b4575b61279b8183611023565b810103126100a157506127ad9061136a565b808e61267d565b503d612791565b8c51630dfe168160e01b81528e81600481885afa9182156125c4578f81936127e6575b505050612681565b9091809350813d8311612818575b6127fe8183611023565b810103126100a157506128109061136a565b38808f6127de565b503d6127f4565b908d82813d831161284d575b6128358183611023565b810103126100a157506128479061136a565b38612646565b503d61282b565b90949392916003841461286b575b50602495611dda565b93945091929091506001600160a01b0361288486611164565b51168a51630dfe168160e01b81528c81600481865afa9081156121ed57600091612b0b575b5060006001600160a01b0382168303612aa757508b5163d21220a760e01b81528d81600481875afa80156120fa578e600091612a73575b5090505b8c51633850c7bd60e01b815260c081600481885afa90811561252157600091612a10575b5060006001600160a01b03841685036129c257506001600160a01b031680156126f78083028390041417156113fe57612982948f928f9361238b9061237d8c89966127106126f760018060a01b03920204169488516001600160a01b03988916948101948552971660208401526040830152859160600190565b03925af19283156121ed57928c8e936129bb9360249a9998979660009384956124015750506001600160a01b0316036123fa5750612c17565b9495612862565b939492936001600160a01b039091169081156127298084028490041417156124865750938093928f928f9361238b9061237d8c6129829a61271061272960018060a01b039202041694612356565b9060c0823d8211612a6b575b81612a2960c09383611023565b810103126100a15750612a648f918f90612a4b60a0926124dd6124d58461136a565b50612a578d8201612bb9565b5061250b60808201612bb9565b5038612908565b3d9150612a1c565b82813d8311612aa0575b612a878183611023565b810103126100a15750612a999061136a565b808e6128e0565b503d612a7d565b8c51630dfe168160e01b81528e81600481885afa9182156125c4578f8193612ad2575b5050506128e4565b9091809350813d8311612b04575b612aea8183611023565b810103126100a15750612afc9061136a565b38808f612aca565b503d612ae0565b908d82813d8311612b39575b612b218183611023565b810103126100a15750612b339061136a565b386128a9565b503d612b17565b9350509082813d8311612b6f575b612b588183611023565b810103126100a15750518c908e908a611ad0611a2f565b503d612b4e565b9350905082813d8311612ba4575b612b8e8183611023565b810103126100a15750518c90898f6119eb611997565b503d612b84565b51908160020b820361077f57565b519061ffff8216820361077f57565b919082604091031261077f576020825192015190565b6001600160a01b039182168152911515602083015260408201929092529116606082015260a060808201819052611653929101906111ab565b600160ff1b81146113fe5760000390565b519063ffffffff8216820361077f57565b51906001600160701b038216820361077f57565b9081606091031261077f57612c6181612c39565b916116536040612c7360208501612c39565b9301612c28565b91906001600160701b03831591612c9183156111ec565b1691821590811580612d4e575b15612d10576103e58502928584046103e51417156113fe576001600160701b036103e59116809502029382850414821517156113fe576103e883029283046103e81417156113fe57612cef916113f1565b908115612cfa570490565b634e487b7160e01b600052601260045260246000fd5b60405162461bcd60e51b8152602060048201526016602482015275496e73756666696369656e74206c697175696469747960501b6044820152606490fd5b506001600160701b0381161515612c9e56fea264697066735822122082eab5153314efe2fe44b946edbeeaf9de80c9040684e02e5f85620e872ae51764736f6c634300081c0033","linkReferences":{}},"methodIdentifiers":{"getFlashloan(address,uint256,address[],uint8[],address[])":"1c5318e4","pancakeV3SwapCallback(int256,int256,bytes)":"23a69e75","receiveFlashLoan(address[],uint256[],uint256[],bytes)":"f04f2707","uniswapV3SwapCallback(int256,int256,bytes)":"fa461e33","vault()":"fbfa77cf","withdrawEth()":"a0ef91df","withdrawTokens(address)":"49df728c"},"id":0}