{"abi":[{"type":"constructor","inputs":[],"stateMutability":"payable"},{"type":"receive","stateMutability":"payable"},{"type":"function","name":"DOMAIN_SEPARATOR","inputs":[],"outputs":[{"name":"","type":"bytes32","internalType":"bytes32"}],"stateMutability":"view"},{"type":"function","name":"MIN_PRIORITY_FEE","inputs":[],"outputs":[{"name":"","type":"uint256","internalType":"uint256"}],"stateMutability":"view"},{"type":"function","name":"REVEAL_DELAY","inputs":[],"outputs":[{"name":"","type":"uint256","internalType":"uint256"}],"stateMutability":"view"},{"type":"function","name":"TIME_LOCK","inputs":[],"outputs":[{"name":"","type":"uint256","internalType":"uint256"}],"stateMutability":"view"},{"type":"function","name":"commit","inputs":[{"name":"commitment","type":"bytes32","internalType":"bytes32"}],"outputs":[],"stateMutability":"nonpayable"},{"type":"function","name":"commitments","inputs":[{"name":"","type":"bytes32","internalType":"bytes32"}],"outputs":[{"name":"","type":"bool","internalType":"bool"}],"stateMutability":"view"},{"type":"function","name":"getFlashloanWithSubmarine","inputs":[{"name":"flashToken","type":"address","internalType":"address"},{"name":"flashAmount","type":"uint256","internalType":"uint256"},{"name":"path","type":"address[]","internalType":"address[]"},{"name":"exchRoute","type":"uint8[]","internalType":"uint8[]"},{"name":"pools","type":"address[]","internalType":"address[]"},{"name":"salt","type":"bytes32","internalType":"bytes32"}],"outputs":[],"stateMutability":"nonpayable"},{"type":"function","name":"pancakeV3SwapCallback","inputs":[{"name":"amount0Delta","type":"int256","internalType":"int256"},{"name":"amount1Delta","type":"int256","internalType":"int256"},{"name":"data","type":"bytes","internalType":"bytes"}],"outputs":[],"stateMutability":"nonpayable"},{"type":"function","name":"pendingTrades","inputs":[{"name":"","type":"bytes32","internalType":"bytes32"}],"outputs":[{"name":"","type":"uint256","internalType":"uint256"}],"stateMutability":"view"},{"type":"function","name":"queueTrade","inputs":[{"name":"tradeHash","type":"bytes32","internalType":"bytes32"}],"outputs":[],"stateMutability":"nonpayable"},{"type":"function","name":"receiveFlashLoan","inputs":[{"name":"tokens","type":"address[]","internalType":"contract IERC20[]"},{"name":"amounts","type":"uint256[]","internalType":"uint256[]"},{"name":"feeAmounts","type":"uint256[]","internalType":"uint256[]"},{"name":"userData","type":"bytes","internalType":"bytes"}],"outputs":[],"stateMutability":"nonpayable"},{"type":"function","name":"uniswapV3SwapCallback","inputs":[{"name":"amount0Delta","type":"int256","internalType":"int256"},{"name":"amount1Delta","type":"int256","internalType":"int256"},{"name":"data","type":"bytes","internalType":"bytes"}],"outputs":[],"stateMutability":"nonpayable"},{"type":"function","name":"vault","inputs":[],"outputs":[{"name":"","type":"address","internalType":"contract IVault"}],"stateMutability":"view"},{"type":"function","name":"withdrawEth","inputs":[],"outputs":[],"stateMutability":"nonpayable"},{"type":"function","name":"withdrawTokens","inputs":[{"name":"token","type":"address","internalType":"address"}],"outputs":[],"stateMutability":"nonpayable"},{"type":"event","name":"ArbitrageAttempt","inputs":[{"name":"startAmount","type":"uint256","indexed":false,"internalType":"uint256"},{"name":"finalAmount","type":"uint256","indexed":false,"internalType":"uint256"},{"name":"profitable","type":"bool","indexed":false,"internalType":"bool"},{"name":"profit","type":"uint256","indexed":false,"internalType":"uint256"}],"anonymous":false},{"type":"event","name":"CommitmentSubmitted","inputs":[{"name":"commitment","type":"bytes32","indexed":true,"internalType":"bytes32"}],"anonymous":false},{"type":"event","name":"FlashLoan","inputs":[{"name":"token","type":"address","indexed":false,"internalType":"address"},{"name":"amount","type":"uint256","indexed":false,"internalType":"uint256"}],"anonymous":false},{"type":"event","name":"FlashLoanReceived","inputs":[{"name":"amount","type":"uint256","indexed":false,"internalType":"uint256"},{"name":"fee","type":"uint256","indexed":false,"internalType":"uint256"},{"name":"balanceAfter","type":"uint256","indexed":false,"internalType":"uint256"}],"anonymous":false},{"type":"event","name":"SwapExecuted","inputs":[{"name":"exchange","type":"uint8","indexed":false,"internalType":"uint8"},{"name":"amountIn","type":"uint256","indexed":false,"internalType":"uint256"},{"name":"amountOut","type":"uint256","indexed":false,"internalType":"uint256"}],"anonymous":false},{"type":"event","name":"SwapStarted","inputs":[{"name":"exchange","type":"uint8","indexed":false,"internalType":"uint8"},{"name":"amountIn","type":"uint256","indexed":false,"internalType":"uint256"},{"name":"tokenIn","type":"address","indexed":false,"internalType":"address"},{"name":"tokenOut","type":"address","indexed":false,"internalType":"address"},{"name":"pool","type":"address","indexed":false,"internalType":"address"}],"anonymous":false},{"type":"event","name":"TradeQueued","inputs":[{"name":"tradeHash","type":"bytes32","indexed":true,"internalType":"bytes32"}],"anonymous":false}],"bytecode":{"object":"0x33608090815260e09081526009610160526841726269747261676560b81b6101805260c061010081815260016101a052603160f81b6101c0524661012052306101405281526101e091908260405251902060a05261328c9081610079823960805181818161098c0152611039015260a051816111e80152f3fe60a0604052600436101561001a575b3615610018575f80fd5b005b5f5f3560e01c806309bdbdc91461121c57806323a69e751461120b5780633644e515146111d157806349df728c1461101a57806376a4f8c714610ff05780637f40f9a614610fd2578063839df94514610fa457806398d850f414610a51578063a0ef91df14610975578063a7bc4e3014610959578063e0a09c681461093d578063f04f27071461016b578063f14fcbc814610119578063fa461e33146100fb5763fbfa77cf146100ca575061000e565b346100f857806003193601126100f857602060405173ba12222222228d8ba445958a75a0704d566bf2c88152f35b80fd5b50346100f85761011661010d3661126e565b92919091611457565b80f35b50346100f85760203660031901126100f8576004358082528160205260408220600160ff198254161790557f64d420a5a06e99f83a5ca11277497c2686ebaf645f537735036323e200c343118280a280f35b50346100f85760803660031901126100f8576004356001600160401b03811161093957366023820112156109395780600401356101a78161136f565b916101b5604051938461134e565b8183526024602084019260051b820101903682116106ec57602401915b818310610919575050506024356001600160401b038111610911576101fb903690600401611386565b6044356001600160401b0381116109155761021a903690600401611386565b606435906001600160401b0382116106ec57366023830112156106ec57816004013585610246826113e3565b93610254604051958661134e565b82855260208501923660248284010111610911578060246020930185378501015273ba12222222228d8ba445958a75a0704d566bf2c833036108b757600185510361086357825183019260208401916020828603126107845751906001600160401b03821161078457019260e0908490031261085f57604051926102d78461131f565b6102e36020820161164b565b8452604081015160208501526102fb6060820161164b565b916040850192835260808201516001600160401b03811161083f578160206103259285010161165f565b606086015260a08201516001600160401b03811161083f5760209083010181601f8201121561083f5780519061035a8261136f565b91610368604051938461134e565b80835260208084019160051b8301019184831161085b57602001905b82821061084357505050608086015260c0820151906001600160401b03821161083f57826103bc60e09260208095602497010161165f565b60a0880152015160c08601908152966001600160a01b03906103dd906116d2565b5116604051928380926370a0823160e01b82523060048301525afa9081156108345787916107fe575b50610410856116d2565b5195610478826040988951906104268b8361134e565b60148252730233630b9b42637b0b7103932b1b2b4bb32b21d160651b60208301528a51916104548c8461134e565b601283527102130b630b731b29030b33a32b91023261d160751b602084015261188e565b7fa02d537af6c14a844a783bddc0e4108e3b0a48749b750e68b04de9e84b3c8c1c60606104a4886116d2565b516104ae876116d2565b518a519182526020820152848a820152a15181038181116107ea576104d2866116d2565b511161079a578660206104ee6104e7886116d2565b5187611935565b94604461051960018060a01b038951169261051261050b8c6116d2565b51916116d2565b51906113fe565b8a51948593849263a9059cbb60e01b845273ba12222222228d8ba445958a75a0704d566bf2c8600485015260248401525af1908115610790578891610752575b5015610702577f1ad8fa4a5079cc458fd777eb676b15e7386af460eaf82326b614689bcec90dd4608061058b876116d2565b5185151593895191825260208201528389820152856060820152a1610610575b825186907f134bde118562a60dcf2d8c52965f586e25cf88a371592e44b78c4aa03bcbac849087906001600160a01b031661060a6105e8896116d2565b5192516001600160a01b03909216825260208201929092529081906040820190565b0390a180f35b82519051855163a9059cbb60e01b81526001600160a01b0391821660048201526024810193909352602091839160449183918a91165af19081156106f85785916106ba575b5015610662575f806105ab565b825162461bcd60e51b815260206004820152602b60248201527f4172626974726167653a2050726f666974205472616e7366657220746f20636160448201526a1b1b195c8819985a5b195960aa1b6064820152608490fd5b90506020813d6020116106f0575b816106d56020938361134e565b810103126106ec576106e690611548565b5f610655565b8480fd5b3d91506106c8565b84513d87823e3d90fd5b855162461bcd60e51b815260206004820152602360248201527f4172626974726167653a205472616e7366657220746f205661756c74206661696044820152621b195960ea1b6064820152608490fd5b90506020813d602011610788575b8161076d6020938361134e565b810103126107845761077e90611548565b5f610559565b8780fd5b3d9150610760565b87513d8a823e3d90fd5b855162461bcd60e51b8152602060048201526024808201527f4172626974726167653a20436f6e747261637420646964206e6f7420676574206044820152633637b0b760e11b6064820152608490fd5b634e487b7160e01b88526011600452602488fd5b90506020813d60201161082c575b816108196020938361134e565b8101031261082857515f610406565b5f80fd5b3d915061080c565b6040513d89823e3d90fd5b8880fd5b60208091610850846116c4565b815201910190610384565b8b80fd5b8580fd5b60405162461bcd60e51b815260206004820152602660248201527f4f6e6c792073696e676c6520746f6b656e20666c6173686c6f616e73207375706044820152651c1bdc9d195960d21b6064820152608490fd5b60405162461bcd60e51b815260206004820152602c60248201527f466c6173684c6f616e54656d706c6174653a2043616c6c6572206e6f7420426160448201526b1b185b98d95c8815985d5b1d60a21b6064820152608490fd5b8280fd5b8380fd5b82356001600160a01b038116810361085f578152602092830192016101d2565b5080fd5b50346100f857806003193601126100f8576020604051603c8152f35b50346100f857806003193601126100f857602060405160018152f35b50346100f857806003193601126100f8576109ba337f00000000000000000000000000000000000000000000000000000000000000006001600160a01b0316146114fc565b478015610a17578180808093335af16109d161161c565b50156109da5780f35b60405162461bcd60e51b8152602060048201526015602482015274115512081dda5d1a191c985dd85b0819985a5b1959605a1b6044820152606490fd5b60405162461bcd60e51b81526020600482015260126024820152714e6f2045544820746f20776974686472617760701b6044820152606490fd5b50346108285760c036600319011261082857610a6b6112c5565b602435906044356001600160401b03811161082857610a8e9036906004016112ef565b6064929192356001600160401b03811161082857610ab09036906004016112ef565b90936084356001600160401b03811161082857610ad19036906004016112ef565b95909363b2d05e004801804811610f90573a1015610aee81611555565b333214610afa81611594565b60405197602089019060018060a01b0316988982528b604082015260e060608201528a816020610b2f6101008301898c6115cf565b828103601f190160808401528b815201885f5b8c8110610f69575050610b6590610b8193601f198483030160a08501528d6115cf565b60a43560c08301523360e083015203601f19810183528261134e565b519020805f525f60205260ff60405f20541615610f2f5760014310610efe57610bc492610bbf915f525f60205260405f2060ff198154169055611555565b611594565b6040516370a0823160e01b8152306004820152946020866024818a5afa958615610ef3575f96610ebf575b5060405197610bfd8961131f565b878952610c1a60208a01958b875260408b019433865236916117da565b9360608a01948552610c2b8761136f565b96610c39604051988961134e565b808852602088019060051b820191368311610828579a97969a959495905b828210610e9957505050610cca9291610c78916080880196875236916117da565b9260a0860193845260c0860196875260405198899660208089015260018060a01b03905116604088015251606087015260018060a01b0390511660808601525160e060a086015261012085019061182e565b915191603f198482030160c0850152602080845192838152019301905f5b818110610e7d57505050610d239391610d0d9151603f198583030160e086015261182e565b905161010083015203601f19810184528361134e565b604091825193610d33848661134e565b600185526020850190601f1985019384368437610d4f876116d2565b52845190610d5d868361134e565b600182526020820194368637610d72826116d2565b5273ba12222222228d8ba445958a75a0704d566bf2c83b15610828578451632e1c224f60e11b81523060048201526080602482015295516084870181905292938693909260a4850192915f5b818110610e5b5750505060209060031985840301604486015251918281520191905f5b818110610e4257505050610e0382915f9460031984830301606485015261186a565b03818373ba12222222228d8ba445958a75a0704d566bf2c85af1908115610e395750610e2d575080f35b61001891505f9061134e565b513d5f823e3d90fd5b8251845287945060209384019390920191600101610de1565b82516001600160a01b0316855289965060209485019490920191600101610dbe565b825160ff16855288955060209485019490920191600101610ce8565b60208091610ead849e9a9b9e99989961160e565b8152019101909a97969a959495610c57565b9095506020813d602011610eeb575b81610edb6020938361134e565b810103126108285751945f610bef565b3d9150610ece565b6040513d5f823e3d90fd5b60405162461bcd60e51b8152602060048201526009602482015268546f6f206561726c7960b81b6044820152606490fd5b60405162461bcd60e51b8152602060048201526012602482015271125b9d985b1a590818dbdb5b5a5d1b595b9d60721b6044820152606490fd5b9250925060208060019260ff610f7e8761160e565b16815201930191019183918e93610b42565b634e487b7160e01b5f52601160045260245ffd5b34610828576020366003190112610828576004355f525f602052602060ff60405f2054166040519015158152f35b34610828575f36600319011261082857602060405163b2d05e008152f35b34610828576020366003190112610828576004355f526001602052602060405f2054604051908152f35b34610828576020366003190112610828576110336112c5565b611067337f00000000000000000000000000000000000000000000000000000000000000006001600160a01b0316146114fc565b6040516370a0823160e01b8152306004820152906001600160a01b0316602082602481845afa918215610ef3575f9261119d575b5081156111605760405163a9059cbb60e01b81523360048201526024810192909252602090829060449082905f905af1908115610ef3575f91611126575b50156110e157005b60405162461bcd60e51b815260206004820152601760248201527f546f6b656e207769746864726177616c206661696c65640000000000000000006044820152606490fd5b90506020813d602011611158575b816111416020938361134e565b810103126108285761115290611548565b816110d9565b3d9150611134565b60405162461bcd60e51b81526020600482015260156024820152744e6f20746f6b656e7320746f20776974686472617760581b6044820152606490fd5b9091506020813d6020116111c9575b816111b96020938361134e565b810103126108285751908261109b565b3d91506111ac565b34610828575f3660031901126108285760206040517f00000000000000000000000000000000000000000000000000000000000000008152f35b346108285761001861010d3661126e565b3461082857602036600319011261082857600435603c4201804211610f9057815f52600160205260405f20557f530862f8194e7c2007599c3d2fd56ffe97128c6c0ed5c4ae4ffc82ed665c6b325f80a2005b9060606003198301126108285760043591602435916044356001600160401b0381116108285782602382011215610828578060040135926001600160401b0384116108285760248483010111610828576024019190565b600435906001600160a01b038216820361082857565b35906001600160a01b038216820361082857565b9181601f84011215610828578235916001600160401b038311610828576020808501948460051b01011161082857565b60e081019081106001600160401b0382111761133a57604052565b634e487b7160e01b5f52604160045260245ffd5b90601f801991011681019081106001600160401b0382111761133a57604052565b6001600160401b03811161133a5760051b60200190565b9080601f8301121561082857813561139d8161136f565b926113ab604051948561134e565b81845260208085019260051b82010192831161082857602001905b8282106113d35750505090565b81358152602091820191016113c6565b6001600160401b03811161133a57601f01601f191660200190565b91908201809211610f9057565b1561141257565b60405162461bcd60e51b815260206004820152601960248201527f496e73756666696369656e7420696e70757420616d6f756e74000000000000006044820152606490fd5b9282606091810103126108285761146d826112db565b90604061147c602085016112db565b930135926001600160a01b0316156114c3576114b9936114a9915f8213156114bb5750925b83111561140b565b33906001600160a01b0316611717565b565b9050926114a1565b60405162461bcd60e51b8152602060048201526011602482015270125b9d985b1a59081d1bdad95b881bdd5d607a1b6044820152606490fd5b1561150357565b60405162461bcd60e51b815260206004820152601b60248201527f4f6e6c7920746865206f776e65722063616e20776974686472617700000000006044820152606490fd5b5190811515820361082857565b1561155c57565b60405162461bcd60e51b815260206004820152601060248201526f4c6f77207072696f726974792066656560801b6044820152606490fd5b1561159b57565b60405162461bcd60e51b815260206004820152600c60248201526b4e6f20666c617368626f747360a01b6044820152606490fd5b916020908281520191905f5b8181106115e85750505090565b909192602080600192838060a01b03611600886112db565b1681520194019291016115db565b359060ff8216820361082857565b3d15611646573d9061162d826113e3565b9161163b604051938461134e565b82523d5f602084013e565b606090565b51906001600160a01b038216820361082857565b9080601f830112156108285781516116768161136f565b92611684604051948561134e565b81845260208085019260051b82010192831161082857602001905b8282106116ac5750505090565b602080916116b98461164b565b81520191019061169f565b519060ff8216820361082857565b8051156116df5760200190565b634e487b7160e01b5f52603260045260245ffd5b8051600110156116df5760400190565b80518210156116df5760209160051b010190565b60405163a9059cbb60e01b602082019081526001600160a01b03909316602482015260448101939093525f92839290839061175f81606481015b03601f19810183528261134e565b51925af161176b61161c565b816117a3575b501561177957565b60405162461bcd60e51b815260206004820152600260248201526114d560f21b6044820152606490fd5b80518015925082156117b8575b50505f611771565b81925090602091810103126108285760206117d39101611548565b5f806117b0565b9291906117e68161136f565b936117f4604051958661134e565b602085838152019160051b810192831161082857905b82821061181657505050565b60208091611823846112db565b81520191019061180a565b90602080835192838152019201905f5b81811061184b5750505090565b82516001600160a01b031684526020938401939092019160010161183e565b805180835260209291819084018484015e5f828201840152601f01601f1916010190565b6118ec905f946118d86118c194879660405196879563c67ea9d160e01b60208801526080602488015260a487019061186a565b91604486015260231985830301606486015261186a565b90608483015203601f19810183528261134e565b6020815191016a636f6e736f6c652e6c6f675afa50565b6040519061191260408361134e565b6014825273010233630b9b4103637b0b71030b6b7bab73a1d160651b6020830152565b608080820180515160409283905284935f936060915b838610611a24575050505050506080515061199a82608051516119706080518261134e565b600e81526d02334b730b61030b6b7bab73a1d160951b602082015283611994611903565b9161188e565b818111156119d85703608051506119d581608051516119bb6080518261134e565b60088152670283937b334ba1d160c51b6020820152612e0a565b90565b6080518051611a20939290916119ee908361134e565b601982527f4e6f2070726f6669742e2046696e616c20616d6f756e743a20000000000000006020830152611994611903565b5f90565b909192939495611a8460ff611a3a898951611703565b511660805151611a4a878261134e565b602181527f457865637574696e6720617262697472616765206f6e2065786368616e67653a6020820152600160fd1b608051820152612e0a565b838201519060ff611a96898951611703565b51169160018060a01b03611aae8a60a0870151611703565b511692611af48160805151611ac56080518261134e565b601a81527f506c6163696e672073776170206f6e2065786368616e67653a200000000000006020820152612e0a565b6001600160a01b03611b068b84611703565b51169160018b0192838c11610f90577f505b3af977f3b25c6e3cf1c29838bbfc07f9371eb4b1751220cc467a4952c7379060a0906001600160a01b03611b4c8786611703565b511660805151918683528860208401526080518301528b820152876080820152a15f90611b798482611703565b50611bc36080515194611b8c8b8761134e565b60028652893660208801376001600160a01b03611ba98f85611703565b5116611bb4876116d2565b526001600160a01b0392611703565b5116611bce846116f3565b526001600160a01b03611be0846116d2565b51166001600160a01b03611bf3856116f3565b51161190826121cc5750611c0884151561140b565b60805151630240bc6b60e21b8152908882600481895afa8015611fe857611c4a925f905f926121ab575b5082156121a45780925b1561219c5750905b85613173565b60805150611c8a8160805151611c626080518261134e565b60168152752b191032bc3832b1ba32b21030b6b7bab73a27baba1d60511b6020820152612e0a565b6103e78102908082046103e71490151715610f90576103e890049160805150611cdf8360805151611cbd6080518261134e565b601081526f2b191030b6b7bab73a27baba26b4b71d60811b6020820152612e0a565b60028151036121605760805151630240bc6b60e21b8152908882600481895afa918215611fe8575f905f9361212d575b50611d53906001600160a01b03611d25846116d2565b51166001600160a01b03611d38856116f3565b51161193841561212657815b851561211e5750905b87613173565b9384106120d8575f806001600160a01b03611d6d846116d2565b516080515163095ea7b360e01b602082019081526001600160a01b038c166024830152604482018b90529290911691908390611dac8160648101611751565b51925af1611db861161c565b816120a1575b501561207657604460206001600160a01b03611dd9846116d2565b51166080515192838092636eb1769f60e11b82523060048301528b60248301525afa8015611fe85786915f91612042575b501061200357611e3190859087906001600160a01b0390611e2a906116d2565b5116611717565b6080515192611e40898561134e565b600284528736602086013784611e55856116d2565b5280611e60856116f3565b528115611ffc575f915b15611ff457945b60805151906020611e82818461134e565b5f8352601f198101903690840137803b1561082857611ed4965f809460805151998a958694859363022c0d9f60e01b85526004850152602484015230604484015260806064840152608483019061186a565b03925af1928315611fe8575f5160206132375f395f51905f52611f04611fcc946001978b97611fd8575b506116f3565b519485935b611f4c8160805151611f1d6080518261134e565b601a81527f73776170206578656375746564206f6e2065786368616e67653a0000000000006020820152612e0a565b6080515190815283602082015284608051820152a16080515190611f726080518361134e565b601b82527f5377617020636f6d706c657465642e20416d6f756e7420696e3a200000000000602083015260805180519290611fad908461134e565b600d83526c01020b6b7bab73a1037baba1d1609d1b602084015261188e565b9601949392919061194b565b5f611fe29161134e565b5f611efe565b608051513d5f823e3d90fd5b505f94611e71565b8091611e6a565b6080515162461bcd60e51b8152602060048201526016602482015275496e73756666696369656e7420616c6c6f77616e636560501b6044820152606490fd5b9150506020813d821161206e575b8161205d6020938361134e565b81010312610828578590515f611e0a565b3d9150612050565b6080515162461bcd60e51b8152602060048201526002602482015261534160f01b6044820152606490fd5b80518015925082156120b6575b50505f611dbe565b81925090602091810103126108285760206120d19101611548565b5f806120ae565b6080515162461bcd60e51b815260206004820152601860248201527f536c69707070616765204c696d697420657863656564656400000000000000006044820152606490fd5b905090611d4d565b8091611d44565b611d53935061215291508a3d8c11612159575b61214a818361134e565b810190613074565b5092611d0f565b503d612140565b6080515162461bcd60e51b8152602060048201526013602482015272092dcecc2d8d2c840e0c2e8d040d8cadccee8d606b1b6044820152606490fd5b905090611c44565b8192611c3c565b90506121c491508a3d8c116121595761214a818361134e565b50905f611c32565b93949390506001820361268857506001600160a01b036121eb836116d2565b511660805151633850c7bd60e01b815260e081600481885afa908115611fe8575f91612664575b5060805151630dfe168160e01b8152602081600481895afa8015611fe85787915f91612624575b50612250936001600160a01b0390911614916130a1565b916126e48302928084046126e41481151715610f90576122a9906080515161227a6080518261134e565b601b81527f556e6920563320657870656374656420616d6f756e74204f75743a00000000006020820152612e0a565b60805180516122ea916122bc908261134e565b60168152752ab734902b199030b6b7bab73a1037baba1036b4b71d60511b6020820152612710850490612e0a565b6001600160a01b03906122fc906116d2565b5116926080515192630dfe168160e01b8452602084600481855afa938415611fe8575f946125e9575b5060805151633850c7bd60e01b815260e081600481865afa908115611fe8575f916125b5575b506001600160a01b0385168603612586576001600160a01b031660638181029180830490911490151715610f9057606490046001600160a01b03165b6001600160a01b0385168603612510576080515163d21220a760e01b815290602082600481875afa938415611fe857889487935f916124ce575b50612400905b60808051516001600160a01b03808d1660208301529092166040830152606082019b909b52998a9081015b03601f1981018b528a61134e565b845f89612432608051519c8d9687958694630251596160e31b86526080519a60018060a01b0316143060048701612f06565b03925af1908115611fe85761248661271061247c5f5160206132375f395f51905f529460019a8e9a611fcc9a5f925f94612495575b508d8060a01b0316145f1461248e5750612f3f565b9204821015612f4f565b948593611f09565b9050612f3f565b9093506124bd9192506080513d608051116124c7575b6124b5818361134e565b810190612ef0565b919091925f612467565b503d6124ab565b93505093506020823d8211612508575b816124eb6020938361134e565b81010312610828578793612400612502889461164b565b906123c1565b3d91506124de565b60805151630dfe168160e01b815290602082600481875afa938415611fe857889487935f91612544575b50612400906123c7565b93505093506020823d821161257e575b816125616020938361134e565b81010312610828578793612400612578889461164b565b9061253a565b3d9150612554565b6001600160a01b031660658181029180830490911490151715610f9057606490046001600160a01b0316612387565b6125d6915060e03d81116125e2575b6125ce818361134e565b810190613006565b5050505050505f61234b565b503d6125c4565b9093506020813d821161261c575b816126046020938361134e565b81010312610828576126159061164b565b925f612325565b3d91506125f7565b9150506020813d821161265c575b8161263f6020938361134e565b810103126108285761225092612655889261164b565b9093612239565b3d9150612632565b61267c915060e03d81116125e2576125ce818361134e565b5050505050505f612212565b876002830361297a57506001600160a01b0390506126a5836116d2565b511660805151633850c7bd60e01b815260e081600481885afa908115611fe8575f91612956575b5060805151630dfe168160e01b8152602081600481895afa8015611fe85787915f91612916575b5061270a936001600160a01b0390911614916130a1565b916126e48302928084046126e41481151715610f905760805180516127639291612734908261134e565b601f81527f50616e63616b6520563320657870656374656420616d6f756e74204f75743a006020820152612e0a565b6127ab608051516127766080518261134e565b601a81527f50616e63616b6520563320616d6f756e74206f7574206d696e3a0000000000006020820152612710850490612e0a565b6001600160a01b03906127bd906116d2565b5116926080515192630dfe168160e01b8452602084600481855afa938415611fe8575f946128db575b5060805151633850c7bd60e01b815260e081600481865afa908115611fe8575f916128b357506001600160a01b0385168603612586576001600160a01b031660638181029180830490911490151715610f9057606490046001600160a01b03166001600160a01b0385168603612510576080515163d21220a760e01b815290602082600481875afa938415611fe857889487935f916124ce57506124009060808051516001600160a01b03808d1660208301529092166040830152606082019b909b52998a9081016123f2565b6125d6915060e03d81116128d4575b6128cc818361134e565b810190612fac565b503d6128c2565b9093506020813d821161290e575b816128f66020938361134e565b81010312610828576129079061164b565b925f6127e6565b3d91506128e9565b9150506020813d821161294e575b816129316020938361134e565b810103126108285761270a92612947889261164b565b90936126f3565b3d9150612924565b61296e915060e03d81116128d4576128cc818361134e565b5050505050505f6126cc565b92600383959295146129a5575b50506001935f5160206132375f395f51905f52611fcc938593611f09565b90935091506001600160a01b036129bb836116d2565b511660805151633850c7bd60e01b815260c081600481885afa908115611fe8575f91612de7575b5060805151630dfe168160e01b8152602081600481895afa8015611fe85787915f91612da7575b50612a20936001600160a01b0390911614916130a1565b916126e48302928084046126e41481151715610f90576080518051612a799291612a4a908261134e565b601c81527f434c205377617020657870656374656420616d6f756e74204f75743a000000006020820152612e0a565b612ac160805151612a8c6080518261134e565b601b81527f434c205377617020616d6f756e74206f7574204d696e696d756d3a00000000006020820152612710850490612e0a565b6001600160a01b0390612ad3906116d2565b5116926080515192630dfe168160e01b8452602084600481855afa938415611fe8575f94612d6c575b5060805151633850c7bd60e01b815260c081600481865afa908115611fe8575f91612d39575b506001600160a01b0385168603612d0a576001600160a01b031660638181029180830490911490151715610f9057606490046001600160a01b03165b6001600160a01b0385168603612c94576080515163d21220a760e01b815290602082600481875afa938415611fe857889487935f91612c52575b50612bcc9060808051516001600160a01b03808d1660208301529092166040830152606082019b909b52998a9081016123f2565b845f89612bfe608051519c8d9687958694630251596160e31b86526080519a60018060a01b0316143060048701612f06565b03925af1908115611fe857612c4761271061247c5f5160206132375f395f51905f529460019a8e9a611fcc9a5f925f9461249557508d8060a01b0316145f1461248e5750612f3f565b949350819550612987565b93505093506020823d8211612c8c575b81612c6f6020938361134e565b81010312610828578793612bcc612c86889461164b565b90612b98565b3d9150612c62565b60805151630dfe168160e01b815290602082600481875afa938415611fe857889487935f91612cc8575b50612bcc906123c7565b93505093506020823d8211612d02575b81612ce56020938361134e565b81010312610828578793612bcc612cfc889461164b565b90612cbe565b3d9150612cd8565b6001600160a01b031660658181029180830490911490151715610f9057606490046001600160a01b0316612b5e565b612d5a915060c03d8111612d65575b612d52818361134e565b810190612e6a565b50505050505f612b22565b503d612d48565b9093506020813d8211612d9f575b81612d876020938361134e565b8101031261082857612d989061164b565b925f612afc565b3d9150612d7a565b9150506020813d8211612ddf575b81612dc26020938361134e565b8101031261082857612a2092612dd8889261164b565b9093612a09565b3d9150612db5565b612dff915060c03d8111612d6557612d52818361134e565b50505050505f6129e2565b612e396118ec5f93928493604051938492632d839cb360e21b602085015260406024850152606484019061186a565b90604483015203601f19810183528261134e565b51908160020b820361082857565b519061ffff8216820361082857565b91908260c091031261082857612e7f8261164b565b91612e8c60208201612e4d565b91612e9960408301612e5b565b91612ea660608201612e5b565b916119d560a0612eb860808501612e5b565b9301611548565b81810292918115918404141715610f9057565b8115612edc570490565b634e487b7160e01b5f52601260045260245ffd5b9190826040910312610828576020825192015190565b6001600160a01b039182168152911515602083015260408201929092529116606082015260a0608082018190526119d59291019061186a565b600160ff1b8114610f90575f0390565b15612f5657565b60405162461bcd60e51b815260206004820152601a60248201527f496e73756666696369656e74206f757470757420616d6f756e740000000000006044820152606490fd5b519063ffffffff8216820361082857565b908160e091031261082857612fc08161164b565b91612fcd60208301612e4d565b91612fda60408201612e5b565b91612fe760608301612e5b565b91612ff460808201612e5b565b916119d560c0612eb860a08501612f9b565b908160e09103126108285761301a8161164b565b9161302760208301612e4d565b9161303460408201612e5b565b9161304160608301612e5b565b9161304e60808201612e5b565b916119d560c0612eb860a085016116c4565b51906001600160701b038216820361082857565b908160609103126108285761308881613060565b916119d5604061309a60208501613060565b9301612f9b565b6001600160a01b0316918215613139576130bb8380612ebf565b156130f457156130de57906130d3816130d893612ebf565b612ebf565b60c01c90565b6130eb826119d593612ebf565b9060c01b612ed2565b60405162461bcd60e51b815260206004820152601960248201527f496e76616c69642070726963652063616c63756c6174696f6e000000000000006044820152606490fd5b60405162461bcd60e51b8152602060048201526012602482015271496e76616c6964207371727420707269636560701b6044820152606490fd5b916001600160701b03831592613189841561140b565b1690811592831580613224575b156131e6576103e585029485046103e5141715610f90576001600160701b036131c0911684612ebf565b916103e882029182046103e8141715610f90576119d5926131e0916113fe565b90612ed2565b60405162461bcd60e51b8152602060048201526016602482015275496e73756666696369656e74206c697175696469747960501b6044820152606490fd5b506001600160701b038216151561319656fecee23d1f117220edb4cb718a7bbb402a5213b9e17c5e1505fc3a4e410deb4a60a26469706673582212205b833500f7126da2b349988e706225cf1e8badad78fcd489182af6390d945b9764736f6c634300081c0033","linkReferences":{}},"methodIdentifiers":{"DOMAIN_SEPARATOR()":"3644e515","MIN_PRIORITY_FEE()":"7f40f9a6","REVEAL_DELAY()":"a7bc4e30","TIME_LOCK()":"e0a09c68","commit(bytes32)":"f14fcbc8","commitments(bytes32)":"839df945","getFlashloanWithSubmarine(address,uint256,address[],uint8[],address[],bytes32)":"98d850f4","pancakeV3SwapCallback(int256,int256,bytes)":"23a69e75","pendingTrades(bytes32)":"76a4f8c7","queueTrade(bytes32)":"09bdbdc9","receiveFlashLoan(address[],uint256[],uint256[],bytes)":"f04f2707","uniswapV3SwapCallback(int256,int256,bytes)":"fa461e33","vault()":"fbfa77cf","withdrawEth()":"a0ef91df","withdrawTokens(address)":"49df728c"},"id":0}